:020000040800F2
:10000000E8720020A9020008272F0008A128000894
:10001000252F00088F040008F74D0008000000009D
:1000200000000000000000000000000011020008B5
:10003000D5040008000000005502000849320008FD
:10004000C3020008C3020008C3020008C30200087C
:10005000C3020008C3020008C3020008C30200086C
:10006000C3020008C3020008C3020008C30200085C
:10007000C3020008C3020008C3020008C30200084C
:10008000C3020008C3020008C3020008C30200083C
:10009000814D0008C3020008C3020008C302000823
:1000A000C3020008C3020008C3020008C30200081C
:1000B000F5320008013300080D330008C3020008C0
:1000C000C3020008C3020008C3020008C3020008FC
:1000D000C3020008C3020008C3020008C3020008EC
:1000E000C3020008C3020008C3020008C3020008DC
:1000F00031330008C3020008C3020008C30200082D
:10010000C3020008C3020008C3020008C3020008BB
:10011000C3020008C3020008193300082533000891
:10012000C3020008C3020008C3020008C30200089B
:1001300000F002F800F05CF80AA090E8000C82449D
:100140008344AAF10107DA4501D100F051F8AFF27A
:10015000090EBAE80F0013F0010F18BFFB1A43F0A5
:1001600001031847005A0000205A00000A444FF0CB
:10017000000C10F8013B13F0070408BF10F8014B06
:100180001D1108BF10F8015B641E05D010F8016B4B
:10019000641E01F8016BF9D113F0080F1EBF10F8AF
:1001A000014BAD1C0C1B09D16D1E58BF01F801CBD2
:1001B000FAD505E014F8016B01F8016B6D1EF9D555
:1001C0009142D6D37047000000230024002500266A
:1001D000103A28BF78C1FBD8520728BF30C148BFAA
:1001E0000B6070471FB500F0DBF81FBD10B510BDE8
:1001F00000F0E8F81146FFF7F5FF04F0ABFE00F061
:1002000006F903B4FFF7F2FF03BC00F00FF900009A
:10021000224B19680868B0E8F00F80F30988BFF333
:100220006F8F4FF0000080F311884EF00D0E704775
:100230000000000006480068006880F3088862B685
:1002400061B6BFF34F8FBFF36F8F00DF00BF00BFFA
:1002500008ED00E0EFF30980BFF36F8F0F4B1A68D2
:1002600020E9F00F106008B54FF0500080F31188BE
:10027000BFF34F8FBFF36F8F05F0B4FA4FF000005C
:1002800080F31188BDE8084019680868B0E8F00FED
:1002900080F30988BFF36F8F704700BF1400002000
:1002A000EFF3058070470000094880470948004780
:1002B000FEE7FEE7FEE7FEE7FEE7FEE7FEE7FEE716
:1002C000FEE7FEE704480549054A064B7047000073
:1002D000F332000831010008E8680020E8720020CD
:1002E000E86E0020E86E002010B5203AC0F00B80C8
:1002F000B1E81850203AA0E81850B1E81850A0E82A
:100300001850BFF4F5AF5FEA027C24BFB1E8185083
:10031000A0E8185044BF18C918C0BDE810405FEAF3
:10032000827C24BF51F8043B40F8043B08BF70476F
:10033000D20728BF31F8023B48BF11F8012B28BF74
:1003400020F8023B48BF00F8012B70474FF0000235
:1003500000B5134694469646203922BFA0E80C50BB
:10036000A0E80C50B1F12001BFF4F7AF090728BF96
:10037000A0E80C5048BF0CC05DF804EB890028BF12
:1003800040F8042B08BF704748BF20F8022B11F03B
:10039000804F18BF00F8012B7047704770477047B7
:1003A00070B5064C7C44064D7D4403E02068204433
:1003B0008047241DAC42F9D170BD0000DC5700001D
:1003C000DC570000754600F02BF8AE460500694684
:1003D000534620F00700854618B020B5FFF772FF9E
:1003E000BDE820404FF000064FF000074FF0000836
:1003F0004FF0000B21F00701AC46ACE8C009ACE8B7
:10040000C009ACE8C009ACE8C0098D46704710B51A
:100410000446AFF300802046BDE81040FFF7F1BE70
:100420000048704784680020704700000149182088
:10043000ABBEFEE72600020070B504460068816886
:10044000C943C90717D1816821F00101816000F01B
:100450007BFA05460AE000BF00F076FA401B02284E
:1004600004D920688068C043C00706D0206880682F
:10047000C043C007F0D0002070BDA06A40F010005B
:10048000A062E06A40F00100E062012070BDFEE77A
:10049000002070470020704710B50022044905482D
:1004A00003F0D8F90449034803F0CEF9002010BD49
:1004B00078610020B45A0020785F002010B5014612
:1004C000034803F0C1F9024803F0A2F9002010BD6F
:1004D000B45A0020704772B6FEE70000F8B5002459
:1004E000009490F824202546012A12D0012280F899
:1004F00024204A681F23072A0DD20668776B521EF4
:1005000002EB820293409F430B6893401F43776343
:1005100019E00220F8BD06680D2A0AD2376BD21FF7
:1005200002EB820293409F430B6893401F43376363
:1005300009E0F76A0D3A02EB820293409F430B6891
:1005400093401F43F7620A68072306680A2A0AD302
:10055000F7680A3A02EB420293409F438B6893404C
:100560001F43F76008E0376902EB420293409F4364
:100570008B6893401F4337610A68102A01D0112A03
:1005800020D1124B02689A4217D193681B0219D4EA
:10059000936843F4000393600968102912D10C4951
:1005A0000C4A0968B1FBF2F101EB8101490000E05E
:1005B000491E00910029FBD104E0816A41F020012D
:1005C0008162012480F824502046F8BD00240140B7
:1005D0001000002040420F002DE9F04104004FF0D0
:1005E00000057FD0A06A002628B9E66284F824605E
:1005F000204600F081F82046FFF71EFFA16AC906D9
:1006000000D420B1A06A40F01000A0626AE0A16AA4
:1006100021F4885141F00201A162334923688B42E1
:10062000E16904D1B1F5402F01D14FF40021277BBE
:100630004FF4807C41EA470261680A43A168614542
:1006400008D0012906D0002194F814E0BEF1010F72
:1006500002D00AE06146F7E7C7B1A76A47F0200772
:10066000A762E76A47F00107E7625F6827F4694716
:100670000F435F60236899681C4F394011439960AC
:10068000A16861450BD0012909D00CE0DFF860E0DA
:10069000A7690EEB47370F4347F40061E5E7218A6E
:1006A0000D05A5F580152168CB6A23F470032B4353
:1006B000CB62216889680F4B1940914208D1E662EC
:1006C000A16A21F0020141F00101A162BDE8F081BF
:1006D000A06A20F0020040F01000A062E06A40F042
:1006E0000100E0620120F1E7003C0140FDF7E1FF7D
:1006F00000E0FFFFFE0E1FFF00B585B00021009156
:1007000001910291039100680E49884217D10E4869
:10071000816941F400418161816901F400410491E2
:10072000816941F0100181618069694600F0100023
:100730000490032000900190044800F009F805B0EF
:1007400000BD0000003C01400010024000100140CC
:100750002DE9F84FDFF8C891002409F1040A0AF1E5
:10076000040B23460F270BF1040ED1E00125A54011
:1007700006EA0502AA4276D1DFF8A8C14E68A6EBC8
:100780000C0866452BD00DDC032E34D005DC36B3C7
:10079000012E19D0022E2FD11BE0112E16D0122EB1
:1007A0002AD119E0B8F5881F19D006DCB8F5803FCA
:1007B00015D0B8F5801F1FD111E0B8F5001F0ED07D
:1007C000B8F5041F18D10AE0CB6815E0CB681B1DF3
:1007D00012E0CB6808330FE0CB680C330CE08B6879
:1007E0002BB1012B4FF0080303D0456104E0042333
:1007F00002E0056100E00023FF2A01D8064601E07F
:1008000000F104064FEA840501D9A5F12005D6F8C8
:10081000008007FA05FC28EA0C0803FA05F548EA07
:100820000508C6F800804D68ED0070D53E4DAE69F4
:1008300046F00106AE61AD6924F0030605F001053E
:1008400000953A4D06EB050CDCF80850A607360F6C
:1008500007FA06F825EA0805DFF8D480404503D1F9
:100860004FF0000825E052E0DFF8C880404502D193
:100870004FF001081DE0DFF8C080404502D14FF085
:10088000020816E0DFF8B480404502D14FF00308BB
:100890000FE0DFF8AC80404502D14FF0040808E0DB
:1008A000DFF8A080404502D14FF0050801E04FF08D
:1008B000060808FA06F848EA0508CCF808804D68EA
:1008C000D9F80060ED034D4601D5164300E096438C
:1008D0002E604D68DAF80060AD03554601D5164329
:1008E00000E096432E604D68DBF80060ED025D4647
:1008F00001D5164300E096432E604D68DEF8006097
:10090000AD02754601D5164300E096432E60641C87
:100910000A681646E2407FF429AFBDE8F88F000070
:1009200000040140000011100010024000000140CE
:1009300000080140000C014000100140001401407B
:1009400000180140001C0140014880687047000009
:100950000400002070B5040025D094F83D00002567
:1009600020B984F83C50204600F0B8F8242084F8E0
:100970003D002068016821F00101016020680168E4
:1009800041F4004101602068016821F400410160E8
:1009900000F098FF4D4A6168914201D84C4900E04F
:1009A0004C49884201D2012070BD4B492368B0FBFD
:1009B000F1F15E6826F03F060E435E606368934285
:1009C00006D94FF4967359434FF47A73B1FBF3F1A0
:1009D0002368491C1E6A26F03F063143196261688C
:1009E000914210D84900401EB0FBF1F2521CC2F3F4
:1009F0000B02042A01D2042022E0B0FBF1F0401CDB
:100A0000C0F30B001CE0A268F2B301EBC10303EBDF
:100A10000116431EB3FBF6F35B1C43F480431B0536
:100A200049D092B301EBC10202EB0111401EB0FBB1
:100A3000F1F0401CC0F30B0040F4804040F4004053
:100A40002168CA694CF6FF739A431043C861D4E920
:100A5000071001432068026822F0C00211430160C0
:100A6000D4E9030101432068826848F2FF339A43C6
:100A700011438160D4E9050108432168CA6822F066
:100A8000FF021043C86001E00EE016E02068016834
:100A900041F0010101602564202084F83D002563B8
:100AA00084F83E50002070BD01EB4106431EB3FBAD
:100AB000F6F35B1CB3E70120C2E701EB4101401EE6
:100AC000B0FBF1F0401CC0F30B00B7E7A0860100BB
:100AD00080841E0000093D0040420F0010B586B022
:100AE0000021009101910291039100681049884210
:100AF0001BD1104CA06940F00800A061A0696946B4
:100B000000F0080004904FF4406000901220019023
:100B1000032003900848FFF71BFEE06940F48000C3
:100B2000E061E06900F48000049006B010BD0000B0
:100B30000058004000100240000C0140024881684B
:100B4000027811448160704704000020074810B506
:100B5000016841F010010160032000F0A7F80F20A8
:100B600000F006F800F050F8002010BD0020024010
:100B700030B505461F4887B0C16941F02001C16109
:100B8000C06906A900F02000009001A800F07AFEDC
:100B90000498B0B100F096FE40001749174AB0FB28
:100BA000F1F11748491E0260416040F2E73200212E
:100BB000C0E903218160816101F088F9040003D05C
:100BC00015E000F07FFEE8E70D4801F0E5F90400CC
:100BD0000DD1372000F03CF8102D07D20022294615
:100BE000372000F043F80748056000E0012407B013
:100BF000204630BD0010024040420F00001400406B
:100C0000C8080020080000200F4808B5816941F09D
:100C100001018161816901F001010091C16941F027
:100C20008051C161C069002200F0805000900F2106
:100C3000901E00F01BF80548416821F0E06141F08A
:100C40000071416008BD000000100240000001403A
:100C5000002809DB00F01F020121914040098000BB
:100C600000F1E020C0F8001170470000F0B40E4B16
:100C70001B680C46C3F30223C3F10705042D00D9FA
:100C80000425191D072901D2002300E0DB1E0126DF
:100C900006FA05F1491E214099409E40761E1640F5
:100CA0003143F0BC04F0A8B80CED00E0064900F0B8
:100CB000070208684FF6FF03184040EA0220034A83
:100CC00010430860704700000CED00E00000FA05DA
:100CD00010B50C0607D501F0070101EB810100EB0F
:100CE000C100283005E001EB810100EBC10000F5F7
:100CF000B47099B232B1012202730181190C4181A1
:100D0000002010BD00220273C180F9E7704701EB9B
:100D1000810200EBC202D0F8E802D26B02F08BBF76
:100D200001EB810200EBC202D0F8E802D2F87C218C
:100D300002F0E4BF70B504460B0601F0070000EBBB
:100D4000800104EBC1014FF001024FF0000503D513
:100D500081F82920283103E081F8695101F5B47147
:100D6000087094F8A802012808D084F8A822206806
:100D700003F004FC84F8A852002070BD022070BD6E
:100D800070B5044601F00F006268904201D901205D
:100D900070BD0B0601F0070000EB800104EBC10100
:100DA0004FF001024FF0000503D581F829202831CA
:100DB00003E081F8695101F5B4718D70087094F801
:100DC000A802012808D084F8A822206803F073FC48
:100DD00084F8A852002070BD022070BD2DE9F05F9C
:100DE00004685FEA424C0B788D69B4F850C04FF04C
:100DF00000064BF68F7948F2800A48F68F7B48F25E
:100E0000C00E4FF480672AD54FF0020808EBC308E4
:100E1000C44407EB4C07E45BC4F30904A54203D3C5
:100E20002D1B8D6101D00BE08E61066836F82350D2
:100E300005EA090585F4005545EA0A0526F8235018
:100E4000520609D50D78036833F8252002EA0B0213
:100E500042EA0E0223F8252084B30A8929E04FF0E4
:100E6000060808EBC308C44407EB4C07E45BC4F373
:100E70000904A54203D32D1B8D6101D00BE08E61C7
:100E8000066836F8235005EA090585F4005545EA59
:100E90000A0526F82350520609D40B78056835F860
:100EA000232002EA0B0242EA0E0225F823202CB18D
:100EB0004A8949690068234603F06CFF2046BDE873
:100EC000F09F2DE9F05F054600680C465FEA426C32
:100ED00016468B692278B0F850C048F68F774CF2EE
:100EE00080094FF6FF7B4FF4004E4FF4806A4FF0BD
:100EF00000017BD54FF0020808EBC208E0440AEB82
:100F0000480C30F80C00C0F30900834211D91B1AB9
:100F1000A3610FD0730407D52E6836F822303B400A
:100F200043EA090326F8223094F82420012A50D0FD
:100F30004EE1A161607810B1012813D01AE0286851
:100F4000B0F85030184400EB0210B0F8042422F43A
:100F5000F842A0F80424B0F8042442F40042A0F8B7
:100F6000042407E02868B0F85030184400EB021061
:100F7000A0F804146278286812B1012A11D018E090
:100F8000B0F850100844217800EB0110B0F80C14B0
:100F900021F4F841A0F80C14B0F80C1441F400410D
:100FA00005E0B0F850201044227800EB0210A0F8C1
:100FB0000C1421782846FFF7AAFE7004B8D52178D2
:100FC0002A6832F82100384040EA090022F821005E
:100FD000FEE0626902446261E2690244E2612369FF
:100FE000226A9A4203D31846111A04E038E084F8C2
:100FF00024100AB110462162617811B1012923D071
:101000002BE02968B1F850201144227801EB02113D
:1010100001F2044148B13E280FD84208C30700D06E
:10102000521C0BEA82220A8017E00A8822F4F84256
:101030000A800A8842F40042F5E74209C30600D15B
:10104000521E4EEA8222EEE72968B1F85020114480
:10105000227801EB0211A1F8040483B22289B3E0E3
:101060004FF0060808EBC208E0440AEB480C30F8E1
:101070000C00C0F30900834211D31B1AA3610FD0E7
:10108000730407D42E6836F822303B4043EA090344
:1010900026F8223094F82420012A50D098E0A1614B
:1010A000607810B1012813D01AE02868B0F85030E9
:1010B000184400EB0210B0F8042422F4F842A0F81F
:1010C0000424B0F8042442F40042A0F8042407E009
:1010D0002868B0F85030184400EB0210A0F804144F
:1010E0006278286812B1012A11D018E0B0F85010C7
:1010F0000844217800EB0110B0F80C1421F4F841F9
:10110000A0F80C14B0F80C1441F4004105E0B0F85C
:1011100050201044227800EB0210A0F80C14217823
:101120002846FFF7F4FD700452D42278296831F87C
:101130002200384040EA090021F8220048E06269B4
:1011400002446261E2690244E2612369226A9A42CE
:1011500003D31846111A216204E00AB11046216235
:1011600084F824106278296812B1012A22D029E07B
:10117000B1F850201144227801EB021101F20C4128
:1011800048B13E280FD84208C30700D0521C0BEAD2
:1011900082220A8016E00A8822F4F8420A800A882D
:1011A00042F40042F5E74209C30600D1521E4EEA5E
:1011B0008222EEE7B1F850201144227801EB0211AF
:1011C000A1F80C04628983B26169286803F000FE0B
:1011D00021782A6832F8210048F6BF73184080F061
:1011E000300048F28003184322F821000020BDE8B7
:1011F000F09F01F0070101EB810100EBC100D0F885
:10120000840170472DE9F04104460F0601F0070004
:1012100000EB800104EBC1014FF001064FF0000527
:1012200003D581F82960283103E081F8695101F57F
:10123000B47108700A61CB704A7802B1C881022B80
:1012400000D10D7194F8A802012809D084F8A86291
:10125000206803F065F8284684F8A852BDE8F081BC
:101260000220FBE770B50C4601F0070505EB850190
:1012700000EBC101C1E95F230022C1F8842181F89C
:10128000692181F8685101F5B4716207006803F0C3
:1012900067FA002070BD70B504460D4601F00700E6
:1012A0006168884201D9012070BD29064FF000060F
:1012B0004FF0010207D500EB800104EBC10181F87A
:1012C0002920283107E005EB850104EBC10181F8F5
:1012D000696101F5B4718A70087094F8A802012858
:1012E00007D084F8A822206803F021FA680702D00A
:1012F00006E0022070BD04F52C71206803F0D9F9D6
:1013000084F8A862002070BD70B50C4601F0070596
:1013100005EB850100EBC101C1E90F23012281F832
:101320004C208B6400234B6481F8292001F8285F4E
:101330006207006803F014FA002070BD1FB5044670
:10134000006803F023FD000402D5204601F0ECFD07
:10135000206803F01BFD40050CD5206830F8441FC1
:1013600021F480610180204600F01EF90021204612
:1013700000F035F9206803F009FD400405D5206828
:1013800030F8441F21F480410180206803F0FEFC06
:10139000800405D5206830F8441F21F400510180F5
:1013A000206803F0F3FCC00414D5206830F8401F17
:1013B00021F004010180206830F8401F21F008016D
:1013C0000180204600F003F9206830F8441F21F422
:1013D00080510180206803F0D9FC00053ED52268C9
:1013E0000020694632F8203021F81030401CC0B28D
:1013F0000828F7D332F8400F40F001001080206831
:1014000030F8402F22F0010202802068B0F844201A
:101410005205FBD530F8442F22F480620280002070
:10142000236831F8102023F82020401CC0B208287F
:10143000F6D3206830F8401F41F008010180206891
:1014400030F8441F21F400610180206830F8401F0B
:1014500041F004010180204600F0F6F8206803F016
:1014600095FC800508D5206830F8441F21F40071F0
:101470000180204600F0AFF8206803F087FCC0052B
:1014800005D5206830F8441F21F4807101801FBD0C
:101490002DE9F04186B0040004D094F8A90200259B
:1014A00020B108E0012006B0BDE8F08184F8A85220
:1014B000204600F05BF8032084F8A902206803F0BE
:1014C000F1F804F11001142288466846FEF70CFF7B
:1014D00094E80F0003F050F80226D0BB00212068EA
:1014E00003F06EFC002001270FE000BF00EB80013D
:1014F00004EBC10181F8297001F8280FC881CD7073
:101500000D614D61401CC0B28D6161688142EDD8B2
:10151000002011E000EB800104EBC10181F869516A
:1015200081F8680181F86B51C1F87851C1F87C519C
:10153000401CC0B2C1F8805161688142EAD81422CF
:1015400041466846FEF7D0FE94E80F0003F0A1F88C
:1015500010B184F8A962A5E784F8245084F8A97230
:10156000206803F094F800209DE7000008B50068AB
:101570000B49884212D10B48C16941F40001C16195
:10158000C069002200F40000009005211420FFF73C
:101590006DFBBDE808401420FFF75ABB08BD0000F2
:1015A000005C00400010024070B5044680680125D0
:1015B000022801D0FEF78FFF2946D4F8E80202F096
:1015C00086FCD4F8E802BDE8704002F042BCD0F8D6
:1015D000E80202F066BCD0F8E80202F06CBC10B57C
:1015E000044690F8A80201280BD0012084F8A80234
:1015F00084F82410206803F0E5FB002084F8A8029A
:1016000010BD022010BDD0F8E82200F52C71104664
:1016100002F069BC10B5044690F8A802012810D069
:10162000012084F8A802206803F0A0FB01212046D5
:10163000FFF76CFB206803F028F8002084F8A8026C
:1016400010BD022010BD000010B50446D0F8E8021D
:1016500002F088FCA069002804D00348016841F02A
:101660000601016010BD000010ED00E02DE9F84317
:1016700005460078354CC00754D0E0690026C0000C
:1016800008D4E06940F08050E061E069012600F094
:10169000805000902E480168C90512D40168804628
:1016A00041F480710160FFF74FF9074605E000BF84
:1016B000FFF74AF9C01B642823D8D8F80000C005FA
:1016C000F6D5206A10F4407021D0A98801F4407149
:1016D00081421CD0206A1F49012220F440700A6018
:1016E00000220A602062C00711D0FFF72DF90746DB
:1016F00041F2883808E000BFFFF726F9C11B4145D9
:1017000002D90320BDE8F883206A8007F4D5206A57
:10171000696820F44070084320621EB1E06920F03F
:101720008050E0612878800705D56068A96820F4BA
:101730004040084360602878C00605D56068696944
:1017400020F48000084360600020DBE700100240C6
:1017500000700040400442422DE9F0470F4605006A
:1017600061D0434E306800F00700B84209D23068BB
:1017700020F0070038433060306800F00700B842BE
:1017800051D128683B4C810712D5400703D56068CA
:1017900040F4E06060602878000703D5606840F49A
:1017A000605060606068A96820F0F00008436060E5
:1017B0002878C00728D06868012810D0216802283E
:1017C00010D0890700292EDA616821F00301014356
:1017D0006160FFF7B9F8804641F288390DE0216871
:1017E0008903EFE78901EDE7FFF7AEF8A0EB080109
:1017F000494502D90320BDE8F0876068696800F0B8
:101800000C00B0EB810FEFD1306800F00700B84258
:101810000BD9306820F0070038433060306800F0A2
:101820000700B84201D00120E5E72878400705D538
:101830006068E96820F4E060084360602878000789
:1018400006D56068296920F4605040EAC1006060F4
:1018500000F058F86168084AC1F30311515CC840B0
:101860000649086006480068FFF782F90020C2E7D1
:101870000020024000100240405B000810000020E1
:10188000080000200F2202600C4A536803F0030393
:101890004360536803F0F0038360536803F4E0632C
:1018A000C36052684FF4E06303EAD2020261044865
:1018B000006800F007000860704700000010024058
:1018C000002002400448054900684968044AC1F301
:1018D0000221515CC84070471000002000100240F7
:1018E000505B00080448054900684968044AC1F390
:1018F000C221515CC8407047100000200010024017
:10190000505B000813A185B00FC98DE80F0015A02A
:10191000154A00680490516801F00C00042804D0B6
:10192000082804D0114805B070471148FBE7C1F3FF
:101930008343C9031DF8030009D5516804AAC1F304
:101940004041515C0A4A5043B0FBF1F0EBE70949D2
:101950004843E8E702030405060708090A0B0C0DD3
:101960000E0F1010010200000010024000127A0059
:101970000024F40000093D002DE9F84F040070D068
:101980002078C04DC00749D06868C0F381000128A5
:1019900007D06868C0F38100022809D16868C003D5
:1019A00006D52868800339D560680028E7D035E07F
:1019B0006068B0F5803F0BD010B1B0F5A02F11D00A
:1019C000286820F480302860286820F4802002E015
:1019D000286840F480302860606890B1FEF7B4FF5A
:1019E00006460AE0286840F480202860F0E700BF3F
:1019F000FEF7AAFF801B642873D828688003F7D5F8
:101A00000CE0FEF7A1FF064605E000BFFEF79CFFD5
:101A1000801B6428F0D828688003F7D420789A4E79
:101A200080074FF001094FF0000839D5686810F0C1
:101A30000C0F07D06868C0F38100022809D16868DC
:101A4000C00306D42868800714D52069012808D16E
:101A500010E02069B0B1C6F80090FEF775FF0746A8
:101A600005E00AE1FEF770FFC01B0228C4D8286811
:101A70008007F7D52868616920F0F80040EAC100C6
:101A800028600DE0C6F80080FEF75EFF074604E020
:101A9000FEF75AFFC01B022823D828688007F7D416
:101AA000207800072CD57948A169D9B1C0F80090F9
:101AB000FEF74AFF074604E0FEF746FFC01B022878
:101AC0000FD8686A8007F7D571484FF4FA5100685B
:101AD000B0FBF1F0009000BF0098411E0091FAD2D7
:101AE0000EE080E0C0F80080FEF72EFF074604E01D
:101AF000FEF72AFFC01B022875D8686A8007F7D452
:101B00002078400760D5E8690027C00008D4E8695C
:101B100040F08050E861E869012700F080500090B3
:101B20005C480168C90513D40168834641F480719B
:101B30000160FEF709FF824606E000BFFEF704FFE2
:101B4000A0EB0A0064284ED8DBF80000C005F5D5EC
:101B5000E06801280AD008B1052813D0286A20F0CF
:101B600001002862286A20F0040002E0286A40F0A0
:101B700001002862E06841F2883B98B1FEF7E4FE7C
:101B800082460BE0286A40F004002862EEE700BFBE
:101B9000FEF7DAFEA0EB0A0159455AD8286A8007F9
:101BA000F6D50CE0FEF7D0FE824605E0FEF7CCFE4F
:101BB000A0EB0A0159454CD8286A8007F6D41FB11A
:101BC000E86920F08050E861E06988B36968C1F392
:101BD0008101022944D00228C6F8608004D0FEF7B3
:101BE000B3FE044638E034E0FEF7AEFE074604E0FC
:101BF000FEF7AAFEC01B02282BD828688001F7D464
:101C0000206AB0F5803F05D16868A16820F40030F3
:101C100008436860D4E908010843696821F4741135
:101C200008436860C6F86090FEF78EFE044606E042
:101C300025E000BFFEF788FE001B022809D82868AF
:101C40008001F7D51BE000BFFEF77EFE001B0228D7
:101C500002D90320BDE8F88F28688001F4D40EE093
:101C60000128F7D06868226A00F48031914204D1DB
:101C7000616A00F47010884201D00120EAE7002078
:101C8000E8E70000001002400000424280044242A7
:101C9000100000200070004070B5040009D0606A98
:101CA000002540B125616561A56294F8510040B1FD
:101CB0000CE0012070BD6068B0F5827FF4D0E56172
:101CC000F2E784F85050204600F040F8022084F8F3
:101CD00051002068016821F040010160A08821893D
:101CE00000F4827001F404410843A18901F4006109
:101CF0000843217C01F002010843217D01F001012C
:101D00000843218B01F400710843217F01F0380161
:101D1000084394F8201001F080010843218D01F45C
:101D20000051084321680860A069042101EA1040BD
:101D3000216848602068C16921F40061C16165655E
:101D4000012084F85100002070BD000030B585B03E
:101D500000240094019402940394224D03682248C5
:101D600002210322AB421FD1836943F48053836174
:101D7000836903F480530493836943F0040383610C
:101D800080691A4D00F004000490A020CDE9000104
:101D9000039269462846FEF7DBFC4020CDE90004AB
:101DA00069462846029419E0114CA34218D1C36930
:101DB00043F48043C361C36903F48043049383699C
:101DC00043F0080383618069039200F008000490E7
:101DD0004FF42040CDE9000169460648FEF7B8FC03
:101DE00005B030BD00300140001002400008014045
:101DF00000380040000C01407047704710B590F863
:101E00003C20012A22D0012280F83C20CA688C683C
:101E100022F4407222434C6822F4806222430C6810
:101E200022F4006222430C6922F4805222434C695E
:101E300022F400522243C969002322F480420A435B
:101E400001684A6480F83C30002010BD022010BDBB
:101E500070B590F83C20012A2CD0012480F83C4039
:101E6000022280F83D2003685A689D6822F07006BF
:101E70000A6832435A60104B02689A420ED00F4BE8
:101E80009A420BD0B2F1804F08D00D4B9A4205D048
:101E90000C4B9A4202D00C4B9A4204D1496825F06F
:101EA00080031943916080F83D40002180F83C1088
:101EB000084670BD022070BD002C01400034014076
:101EC0000004004000080040000C004010B5040071
:101ED00003D094F83D0010B107E0012010BD0020B0
:101EE00084F83C00204600F01FF8022084F83D00F2
:101EF000211D206801F022FA012084F8460084F8B0
:101F00003E0084F83F0084F8400084F8410084F8E3
:101F1000420084F8430084F8440084F8450084F8C3
:101F20003D00002010BD000008B5174A01681748A1
:101F3000914207D1816941F400618161806900F4B7
:101F4000006009E0124A914208D1C16941F00801DC
:101F5000C161C06900F00800009008BD0D4A9142BF
:101F6000FBD1C16941F01001C161C069002200F0DC
:101F70001000009005213620FEF778FEBDE80840ED
:101F80003620FEF765BE0000002C01400010024024
:101F9000000C00400010004090F83D10012901D0D5
:101FA00001207047022180F83D100168CA6842F0A4
:101FB0000102CA6000680E4988420ED00D4988426D
:101FC0000BD0B0F1804F08D00B49884205D00B49A7
:101FD000884202D00A49884204D1816801F0070191
:101FE000062903D0016841F001010160002070471B
:101FF000002C014000340140000400400008004073
:10200000000C004070B5044690F83C00012817D041
:10201000012584F83C50022084F83D002068826845
:1020200022F0770222F47F4282600868502830D084
:102030000DDC20284DD005DC98B310283BD148E0BA
:10204000022070BD302844D0402834D139E06028C7
:1020500028D0702806D0B0F5805F2CD0B0F5005F96
:1020600029D10AE0CB68D1E90121206801F0ACF95F
:102070002068816841F0770109E0CB68D1E901214E
:10208000206801F0A1F92068816841F480418160F5
:1020900011E0CA684968206801F06AFA5021206896
:1020A00007E016E0CA684968206801F072FA60210A
:1020B000206801F093F984F83D50002084F83C003A
:1020C00070BDCA684968206801F052FA4021206852
:1020D000EFE7226801461046EBE72DE9F0410D4697
:1020E000040003D094F83D0018B108E00120BDE8D9
:1020F000F081002084F83C00204600F041F80220E6
:1021000084F83D002068816844F2070291438160B1
:10211000211D206801F012F9226890689169166A01
:102120002B68AF69034340F20330814341EA072142
:10213000A868EF6908434FF6FC418843E96840EA24
:102140000720014328692F6A000140EA073008434D
:1021500069686D6926F0220646EA051529439360F1
:102160002268906154F8460B0162012004F81F09AF
:10217000E0752076E0762077A0750020B7E70000B4
:1021800070B586B00025009501950295039500680D
:102190005349544E544CB0F1804F2BD0534A904287
:1021A0005ED1C86940F00200C861C86900F0020051
:1021B0000490886940F0080088618869694600F0E9
:1021C00008000490302000903046FEF7C1FA6068A5
:1021D00020F4406040F0E06040F400606060002265
:1021E00005211D20FEF742FD5FF01D00FEF730FDCA
:1021F00006B070BDC86940F00100C861C86900F050
:1022000001000490886940F004008861886900F04A
:1022100004000490886940F0080088618869694674
:1022200000F0080004904FF4004000903048FEF7A2
:102230008FFA0820CDE90005694630460295FEF781
:1022400087FA606820F4407040F0E06040F48070ED
:102250006060002205211C20FEF708FD1C20C5E758
:10226000244BC02298421BD1C86940F00400C861C9
:10227000C86900F004000490886940F00800886193
:102280008869694600F00800049000923046FEF725
:102290005FFA002205211E20FEF7E8FC1E20A5E7BC
:1022A000154B9842A4D1886940F400508861886930
:1022B00000F400500490886940F01000886188693B
:1022C000694600F01000049000920C48FEF740FAB6
:1022D000002205212C20FEF7C9FC2C2086E70000F7
:1022E00000100240000C01400000014000040040CA
:1022F0000008014000080040003401400010014087
:10230000104B114A0168984203D1496A890811802B
:1023100013E00E4B984203D1496A890851800CE0C2
:102320000B4B984203D1496A8908918005E0094B1B
:10233000984202D1496A8908D1800068002141622F
:10234000704700004C060020E801002094060020A1
:10235000DC060020B407002070B50446006801695F
:102360004FF00005C943890715D4C168C9438907DF
:1023700011D4E91E0161012020772068806980075F
:10238000204602D0FFF7BCFF04E000F0F3F820463F
:1023900000F0B0F9257720680169C943490717D4CF
:1023A000C168C943490713D46FF0040101610220D9
:1023B00020772068806910F4407F204602D0FFF724
:1023C0009FFF04E000F0D6F8204600F093F925774F
:1023D00020680169C943090716D4C168C9430907C0
:1023E00012D46FF008010161042020772068C069D1
:1023F0008007204602D0FFF783FF04E000F0BAF820
:10240000204600F077F9257720680169C943C9069D
:1024100017D4C168C943C90613D46FF01001016114
:10242000082020772068C06910F4407F204602D041
:10243000FFF766FF04E000F09DF8204600F05AF92F
:10244000257720680169C943C90708D1C168C94314
:10245000C90704D1891E0161204600F04DF92068AA
:102460000169C943090609D4C168C943090605D4ED
:102470006FF0800101612046FFF7BEFC2068016912
:10248000C943490609D4C168C943490605D46FF058
:1024900040010161204600F039F920680169C94313
:1024A00089060BD4C168C943890607D46FF020019F
:1024B00001612046BDE87040FFF79FBC70BD000081
:1024C00010B586B000210091019102910391124C48
:1024D0000368124902221248A34209D18B6943F0D2
:1024E00004038B61896901F00401049181150BE0FB
:1024F0000C4CA3420ED18B6943F004038B618969B4
:1025000001F0040104910F21CDE900126946039204
:10251000FEF71EF906B010BD002C0140001002406D
:1025200000080140000C004010B5044690F83C0043
:1025300001280AD0012084F83C0042B1042A0AD0C4
:10254000082A0CD00C2A11D10DE0022010BD206801
:1025500000F04CFF0AE0206800F078FF06E02068F9
:1025600000F0AAFF02E0206800F0DAFF002084F803
:102570003C0010BD704710B5040003D094F83D0036
:1025800010B107E0012010BD002084F83C00204677
:1025900000F01EF8022084F83D00211D206800F0A4
:1025A000CDFE012084F8460084F83E0084F83F0008
:1025B00084F8400084F8410084F8420084F8430025
:1025C00084F8440084F8450084F83D00002010BDE4
:1025D000704770B5044690F83C000D4601280AD0BB
:1025E000012084F83C0042B1042A18D0082A2AD0DD
:1025F0000C2A4DD139E0022070BD206800F0F6FEB3
:102600002068816941F0080181612068816921F0B9
:1026100004018161206881692A69114311E0206801
:1026200000F014FF2068816941F400618161206835
:10263000816921F480618161206881692A6941EAA8
:102640000221816124E0206800F036FF2068C16922
:1026500041F00801C1612068C16921F00401C16134
:102660002068C1692A69114311E0206800F058FF11
:102670002068C16941F40061C1612068C16921F429
:102680008061C1612068C1692A6941EA0221C16192
:10269000002084F83C0070BD10B5040003D094F80D
:1026A0003D0010B107E0012010BD002084F83C007F
:1026B000204600F01EF8022084F83D00211D20680D
:1026C00000F03CFE012084F8460084F83E0084F8C7
:1026D0003F0084F8400084F8410084F8420084F808
:1026E000430084F8440084F8450084F83D0000204D
:1026F00010BD70477047000000680349884201D14F
:10270000FEF71CBA7047000000140040704770B517
:10271000040004D094F83D00002510B106E001202B
:1027200070BD84F83C50204600F022F8242084F844
:102730003D002068C16821F40051C160204600F0CE
:102740003BFF2068016921F49041016120684169E3
:1027500021F02A0141612068C16841F40051C16043
:102760002564202084F83D0084F83E00002070BDE0
:10277000F0B585B000240094019402940394404D78
:1027800006684049022203233F48AE4225D1CD6965
:1027900045F48015CD61CD6905F4801504958D69EA
:1027A00045F010058D618D6905F0100504958D6962
:1027B00045F020058D618969039301F020010491A2
:1027C0008114CDE900126946FDF7C2FF0420CDE96E
:1027D000000469462D48029421E02D4F3D15BE426C
:1027E00021D1886940F480408861886900F4804084
:1027F0000490886940F0040088618869254E00F0E3
:10280000040004906810CDE9000269460393304645
:10281000FDF79EFFCDE90054694630460294FDF76E
:1028200097FF05B0F0BD1C4FBE42FAD1CE6946F409
:102830008026CE61CE6906F4802604968E6946F025
:1028400010068E61896901F01001CDE90331CDE9EF
:10285000005269460546FDF77BFFF814CDE90004F8
:10286000694628460294FDF773FF0C48416821F041
:10287000300141F0E06141F010014160D1E700001A
:1028800000500040001002400010014000140140C0
:1028900000380140000801400048004000000140AD
:1028A000FEE70000F0B500230A24302537261F4636
:1028B00011E000BFB4EB107F02D905EB107C01E002
:1028C00006EB107C01F813C001EB430C00015B1C0C
:1028D0008CF80170DBB29342ECD3F0BD3EB500241E
:1028E00011480094019402940E49846001600473BD
:1028F0000475012505614FF460214460C161FDF755
:102900006BFE08B1FDF7E7FD0A20CDE90005694639
:1029100002940548FDF7E2FD002801D0FDF7DBFD3C
:102920003EBD0000003C0140D004002000B587B04F
:102930001C2206496846FDF7D7FC0021684602F0D4
:1029400051FB0349086007B000BD0000245B00088C
:102950000000002010B586B00020029003901D48B2
:10296000816941F010018161816901F010010491D8
:10297000816941F020018161816901F020010491A8
:10298000816941F004018161816901F004010491D0
:10299000816941F0080181618069032400F0080029
:1029A000049042F23C30CDE9000469460A48FDF744
:1029B000CFFE1020CDE9000469460848FDF7C8FEA7
:1029C00045F20730CDE9000469460548FDF7C0FE31
:1029D00006B010BD00100240001001400008014088
:1029E000000C01400D4810B50B4901600C494160D5
:1029F00000214FF480428160C0E90312416181618E
:102A0000C1610162FDF7A6FF002803D0BDE81040B8
:102A1000FDF761BD10BD000000580040000500201A
:102A2000A0860100104810B50E4901604FF4827174
:102A3000416000218160C1604FF400720161C0E912
:102A400005122822C0E90721416281620A21C16280
:102A5000FFF722F9002803D0BDE81040FDF73BBD89
:102A600010BD000000300140540500200F4810B593
:102A70000D4901604FF48271416000218160C160A5
:102A80004FF400720161C0E90512C1610162416247
:102A900081620A21C162FFF7FFF8002803D0BDE878
:102AA0001040FDF718BD10BD00380040AC050020F7
:102AB00010B596B000240F941094119412941394AE
:102AC0001C2108A81494FDF741FC20216846FDF75D
:102AD0003DFC27482549C0E900144FF6FF71C0E9C5
:102AE0000241046144618461FFF7F0F908B1FDF728
:102AF000F2FC4FF480500F900FA91D48FFF782FAA7
:102B000008B1FDF7E8FC1A48FFF735FD08B1FDF7FD
:102B1000E2FC139413A916481494FFF799F908B12D
:102B2000FDF7D9FC089409940A940B940C940D9425
:102B3000002208A90E480E94FFF7F6FC08B1FDF735
:102B4000CAFC00944FF40050CDE904400294019473
:102B50000394694606480794FFF750F908B1FDF75A
:102B6000BAFC0348FFF7ACFC16B010BD002C0140C6
:102B70000406002010B58CB024216846FDF7E6FB62
:102B80000024154809944FF080410A9401604721C0
:102B9000C0E9011441F28731C0E9031484610120C6
:102BA000CDE90004CDE902040494CDE90540079481
:102BB000694609480894FFF790FA08B1FDF78BFCC5
:102BC000099409A904480A94FFF742F9002801D0A2
:102BD000FDF781FC0CB010BD4C06002010B58CB088
:102BE00024216846FDF7B2FB0024154809941349D7
:102BF0000A94C0E9001441F28731C0E9024104613E
:102C000084610120CDE90004CDE902040494CDE9FA
:102C10000540079469460A480894FFF75EFA08B130
:102C2000FDF759FC099409A905480A94FFF710F922
:102C3000002801D0FDF74FFC0CB010BD000400408F
:102C40009406002010B58CB024216846FDF77EFB69
:102C500000241548099413490A94C0E9001441F26C
:102C60008731C0E90241046184610120CDE900049B
:102C7000CDE902040494CDE90540079469460A4869
:102C80000894FFF72AFA08B1FDF725FC099409A971
:102C900005480A94FFF7DCF8002801D0FDF71BFC7B
:102CA0000CB010BD00080040DC06002010B58EB04E
:102CB00000240794089409940A940B941C216846F4
:102CC0000C94FDF743FB2A482849C0E900144FF64D
:102CD000FF71C0E9024104618461FFF7F7F808B1B0
:102CE000FDF7F9FB4FF48050079007A92048FFF744
:102CF00089F908B1FDF7EFFB1D48FFF7CDFC08B1DE
:102D0000FDF7E9FB0B940BA919480C94FFF7A0F809
:102D100008B1FDF7E0FB6020CDE900040294002239
:102D2000694613480494FFF754FC08B1FDF7D3FB40
:102D3000042269460E48FFF74CFC08B1FDF7CBFBB7
:102D4000082269460A48FFF744FC08B1FDF7C3FBB7
:102D50000C2269460648FFF73CFC08B1FDF7BBFBB7
:102D60000348FFF7ADFB0EB010BD0000000C0040A3
:102D7000240700201CB500240F4800940D4901943D
:102D800001604721C0E9011441F28831C16080210E
:102D90008161FFF79BF808B1FDF79DFB0094694640
:102DA00005480194FFF754F8002801D0FDF793FB84
:102DB0001CBD0000001000406C07002010B58CB056
:102DC00024216846FDF7C2FA0024164809941449E4
:102DD0000A94C0E9001441F28731C0E9024104615C
:102DE000446184610120CDE90004CDE9020404942A
:102DF000CDE90540079469460A480894FFF76DF944
:102E000008B1FDF768FB099409A906480A94FFF781
:102E10001FF8002801D0FDF75EFB0CB010BD0000CC
:102E200000340140B40700200C4810B50A49016085
:102E30004FF4E1314160002181600C22C160C0E9A2
:102E400004128161C161FFF762FC002803D0BDE874
:102E50001040FDF740BB10BD00500040FC070020B3
:102E60000C4810B50A4901604FF4E131416000217E
:102E700081600C22C160C0E904128161C161FFF769
:102E800046FC002803D0BDE81040FDF724BB10BD70
:102E900000380140400800200C4810B50A49016084
:102EA0004FF4E1314160002181600C22C160C0E932
:102EB00004128161C161FFF72AFC002803D0BDE83C
:102EC0001040FDF708BB10BD0048004084080020FA
:102ED00010B500220F49104800F086FE08B1FDF73A
:102EE000FAFA0E490C4801F063F808B1FDF7F3FA5D
:102EF0000B49094800F0A0FC08B1FDF7ECFA0648C0
:102F000001F0ACF8002803D0BDE81040FDF7E3BAAB
:102F100010BD000074000020B45A0020B001002051
:102F2000C4000020FEE7FEE72DE9F84F044640F616
:102F30008F7B48F60F7A4FF002094FF4806874E1F6
:102F4000B0F8441011F00F063AD030F8267039046A
:102F50007DD530F8261001EA0B0141F0800120F800
:102F6000261006EB860004EBC00595F8740105F504
:102F7000B47500286CD0E87802286AD028782268D6
:102F800032F8201048F68F73194048F2C0031943F5
:102F900022F820102878D4F800C03CF82010BCF8A3
:102FA000502049047ED509EBC000111808EB410000
:102FB0003CF800008005800D009074D02A89D8E08C
:102FC000C9062DD4018801EA0A0141F400410180BB
:102FD000216804F12805B1F850202B7809EBC300D3
:102FE000024408EB4200085AC0F309006064E16B38
:102FF0000844E06300212046FDF789FE94F8240090
:1030000000289CD0A869002899D194F82400216850
:1030100040F08000A1F84C00002084F8240004E176
:10302000018804F5B4750A0521D5B0F850202B7835
:10303000062101EBC3010A4408EB4201405A04F5A2
:103040002C71C0F30903EB61EA88206802E0ACE070
:1030500068E07AE001F09EFE2168088800EA0B0033
:1030600040F0800008802046FEF7CDFADDE009043C
:10307000D5D5018801EA0B0141F08001018020686B
:10308000B0F850202B78062101EBC3010A4408EB6D
:103090004201405A83059B0DEB6110D0696971B103
:1030A000EA8801E058E056E0206801F073FEE96923
:1030B00068690844686100212046FDF731FE2068F8
:1030C000018809052DD4B0F850100844296900F290
:1030D0000C4051B13E2910D84A08C90700D0521CF3
:1030E0004FF6FF7101EA82210FE0018821F4F841D7
:1030F0000180018841F4004107E04A09C90600D176
:10310000521E4FF4004141EA82210180206801886B
:103110004BF68F72114081F4405148F28002114306
:10312000018082E0D4F800C0BCF850102A78062054
:1031300000EBC200014408EB41003CF800008005B0
:10314000800D00901AD0EA8813E03A4629462046BE
:10315000FDF744FE009011E0062101EBC0001118BC
:1031600008EB41003CF800008005800D009005D080
:103170006A8903466046696901F00CFEE9690098B6
:103180000844E8616969009808446861A86918B151
:1031900029690098814204D929782046FDF7C0FDAD
:1031A00003E02946206801F0DBFA38063DD506EB3E
:1031B000860004EBC001206830F8262002EA0A02EB
:1031C00042F4004220F8262091F82B0028310328F1
:1031D00004D018B1022824D1F80522D42368B3F80A
:1031E00050200D7809EBC500024408EB4200185A44
:1031F0008A69C0F3090082420CD9121A8A610BD085
:103200004A6902444A61CA691044C861206801F0F1
:10321000A7FA0AE000208861E9B22046FDF777FDB1
:1032200003E03A462046FDF74CFE2068B0F8441013
:1032300009043FF585AE0020BDE8F88FFFF748FE92
:10324000012001F0C3FEFBE710B5502080F3118888
:10325000BFF34F8FBFF36F8F02F09EFB18B104498D
:103260004FF080500860002080F3118810BD0000EE
:1032700004ED00E010B596B028216846FDF766F829
:1032800014210AA8FDF762F818210FA8FDF75EF8CF
:103290000120010442048DE8070004904FF4E0107F
:1032A000CDE90810022407946846FEF765FB08B1D3
:1032B00072B6FEE70F20CDE90A0400244FF48060C7
:1032C000CDE90C4002210AA80E94FEF745FA08B198
:1032D00072B6FEE712200F904FF400401190149444
:1032E0000FA8FEF7C3F9002801D072B6FEE716B0AA
:1032F00010BD70470148FFF72FB800004C060020B2
:103300000148FFF729B80000940600200148FFF7A4
:1033100023B80000DC0600200148FFF71DB80000BC
:103320006C0700200148FFF717B80000C80800200C
:103330000148FFF711B80000B4070020F0B502689B
:103340001C4B1D4D1D4E1E4F1E4C4FF0804C984285
:1033500009D0A04207D0604505D0A84203D0B042B2
:1033600001D0B84204D122F0700E4A6842EA0E023F
:10337000984209D0A04207D0604505D0A84203D0AA
:10338000B04201D0B84203D122F44075CA682A4342
:103390004D6922F080022A4302608A68C2620A688C
:1033A0008262984201D0A04201D1096901630121E2
:1033B0004161F0BD002C01400004004000080040C5
:1033C000000C00400034014010B5846842EA03223A
:1033D00024F47F440A432243826010BD826822F0B5
:1033E00070020A4342F0070181607047F0B5026A3B
:1033F00022F001020262036A42688469124E24F0DC
:1034000073050C682C4323F002058B682B430D4D8C
:10341000A84201D0B04205D123F00807CB683B4356
:1034200023F00403A84201D0B04205D14D6922F433
:10343000407215438A692A43426084614968416346
:103440000362F0BD002C014000340140F0B5026A77
:1034500022F010020262026A436884690D6824F453
:10346000E64444EA05248D6822F0200242EA05126F
:103470000F4D104EA84201D0B04206D1CF6822F0C5
:10348000800242EA071222F04002A84201D0B04274
:1034900007D14D6923F4406343EA85038D6943EA0C
:1034A000850343608461496881630262F0BD000066
:1034B000002C014000340140F0B5026A22F4807211
:1034C0000262026A4368C46922F4007224F0730540
:1034D0000C68124E2C438D6842EA05220E4DA8421C
:1034E00001D0B04206D1CF6822F4006242EA07223E
:1034F00022F48062A84201D0B04207D14D6923F482
:10350000405343EA05138D6943EA05134360C461E0
:103510004968C1630262F0BD002C014000340140E3
:1035200030B5026A22F480520262046A4268C369BA
:103530000D6823F4E64343EA05238D6824F4005420
:1035400044EA0534084DA84202D0084DA84204D1EF
:103550004D6922F4804242EA85124260C3614968A3
:103560000164046230BD0000002C014000340140C1
:1035700010B5036A046A24F001040462846924F02B
:10358000F00444EA021423F00A020A43846102624E
:1035900010BD10B5036A23F0100303628369046A47
:1035A00023F4704343EA023224F0A00343EA0111FA
:1035B0008261016210BD000070B5044600680169B7
:1035C000E26821F44051114301612169A068084378
:1035D000616908432168CA6841F20C639A43024357
:1035E000CA6020684169A26921F4407111434161B8
:1035F0001E492068884202D1FEF774F901E0FEF707
:1036000061F900EBC00101EB0012606864218000E9
:10361000B2FBF0F3B3FBF1F36FF018067343B2FBA8
:10362000F0F5B2FBF0F605EB8305322303EB05154D
:10363000B5FBF1F5B6FBF1F605F0F00505EB061567
:10364000B2FBF0F6B2FBF0F0B0FBF1F06FF0180255
:10365000504306EB800003EB0010B0FBF1F0216853
:1036600000F00F002844886070BD00000038014061
:103670002DE9F041D0F8C032D0F8B822CAB101EB40
:10368000810500EB85040026E7693FB103EBC50324
:103690009B6BB7FBF3F503FB157323B1C2F8146200
:1036A0000020BDE8F08100231A46E66100F063FCCB
:1036B000F6E70220F5E770B50546D0F8B84200F00D
:1036C0005EFBC4F80C02D5F8B80248B1D5F8BC12BC
:1036D000D4F80402CA6804F503719047002070BD55
:1036E000022070BD70B504460026812100F09AFAD0
:1036F000002501212046E56200F094FA822120464F
:10370000C4F86C5100F08EFA2564D4F8B80248B1C0
:10371000D4F8BC0204F52E7440688047206800F09D
:10372000FAFD2560304670BD10B5D0E9AE4159B103
:1037300094F80002FF2807D08B6894F801222146F4
:103740009847FF2084F80002002010BD0A21018064
:1037500000487047D800002043210180004870478E
:10376000280100204321018000487047E400002028
:1037700043210180004870476C0100202DE9F04191
:1037800004460026007C4FF40077012590B34023C7
:1037900002228121204600F047FB4023E5620222FD
:1037A0000121204600F040FB08230322822120460D
:1037B000C4F86C5100F038FB4FF40770256400F03A
:1037C000ABFDC4F8B802F8B10546D4F8BC020068F5
:1037D00080470020C5F81402C5F81802207CD5F8EF
:1037E000042298B140230121204600F029FB3046F5
:1037F000BDE8F081FFE73B4602228121204600F030
:1038000013FB3B46E562CAE70126F0E73B46EAE7E1
:1038100010B5D0F8B81269B1027C002AD1F80422A0
:1038200005D04023012100F00BFB002010BD4FF418
:103830000073F7E7022010BD02460220002902D0E3
:103840000020C2F8BC127047D0F8B802C0F80412C9
:1038500000207047D0F8B802C0F81022C0F8081253
:10386000002070472DE9FC410546D0F8B8720020D1
:103870008DF80000ADF80400064608780C4610F0FC
:10388000600121D020293BD1E288AAB100066078EE
:1038900007D5D5F8BC128B6839469847E288394677
:1038A00026E087F80002A07987F80102E28839460D
:1038B000284600F04FF828E0D5F8BC1260780022C6
:1038C0008B682146984720E0607820B10A2809D00B
:1038D0000B2815D110E095F89C02032810D1022284
:1038E00001A905E095F89C02032809D10122694647
:1038F000284600F049F808E095F89C02032804D017
:103900002146284600F01BF802263046BDE8FC811F
:1039100010B5D0F8B42252689047002010BD13466D
:1039200010B50A46002100F08BFA002010BD1346A6
:1039300010B50A46002100F01EFB002010BD10B596
:103940000446802100F0FCFA2046BDE8104000212A
:1039500000F0F6BA10B50323C0F85C21C0F8943229
:10396000C0F8602113460A46002100F069FA0020E1
:1039700010BD10B505210023C0F894121A4619464F
:1039800000F05EFA002010BD10B50223C261C0F83D
:103990009432026213460A46002100F0ECFA00203D
:1039A00010BD10B504210023C0F894121A46194620
:1039B00000F0E1FA002010BD10B50A46024903A04C
:1039C00000F0E2F8004810BD785D00204344432039
:1039D000436F6E66696700001220088000487047D8
:1039E0009400002010B50A46024903A000F0CCF86C
:1039F000004810BD785D002043444320496E746543
:103A0000726661636500000004200880004870470A
:103A10009000002010B50A46024903A000F0B4F857
:103A2000004810BD785D002053544D6963726F6586
:103A30006C656374726F6E696373000010B50A463B
:103A4000024903A000F0A0F8004810BD785D0020F6
:103A500053544D3332205669727475616C20436F34
:103A60006D506F727400000010B51A2008800A486B
:103A70000168001D0468001D0068081809D00822AC
:103A80000649FEF70FFF0549042210312046FEF7D4
:103A900009FF0248801E10BDE8F7FF1FAA000020A2
:103AA000F8B504460020ADF8000048880D46010A2C
:103AB000082948D2DFE801F04704091747473C4589
:103AC000D4F8B012207C0A6819E0207C0226002875
:103AD000D4F8B40205D0C16A6846884701464670EA
:103AE0003EE0816AF8E7C0B206282CD2DFE800F099
:103AF000030A1014181CD4F8B002426805E06946A5
:103B000090471CE0D4F8B0028268E2B1207CF6E76E
:103B1000D4F8B002C268F8E7D4F8B0020269F4E75A
:103B2000D4F8B0024269F0E7D4F8B0028269ECE759
:103B3000207C40B9D4F8B402416B684688470146FE
:103B40000EE0207C20B129462046FFF7F8FEF8BDA4
:103B5000D4F8B402016B68468847014607204870D4
:103B6000BDF8000048B1EA8852B1824200D902464D
:103B7000ADF800202046FFF707FFE8880028E6D1CF
:103B80002046FFF70EFFF8BD70B5002300281ED0B9
:103B90000446002502E06D1CEDB2641C2678002E60
:103BA000F9D1022404EB450414801278CA545B1C3A
:103BB0000322CA5400245B1C06E0CA545B1CDAB220
:103BC0008C54521CD3B2401C0278002AF5D170BD2F
:103BD00001004FF0000004D0012901D0022901D0DA
:103BE000022070470120704710B580B1D0F8B43280
:103BF00013B10023C0F8B43209B1C0F8B0120121EA
:103C000080F89C12027000F0BFF8002010BD022066
:103C100010BD10B5D0F8C002FDF7B2F8BDE81040F5
:103C2000FFF7D6BF10B5D0F8C002FDF783F8BDE8A6
:103C30001040FFF7CDBF2DE9F0411746044651B1C2
:103C4000D4F8B40242691AB194F89C02032851D006
:103C50000220BDE8F081D4F89432002504F114006C
:103C6000022B03D0042B3AD0C3B33CE0D0E903636A
:103C70009E4207D9F11AC1608AB239462046FFF741
:103C800056FE12E08068B0FBF3F103FB110199B915
:103C9000984211D3D4F8981288420DD200221146CE
:103CA0002046FFF744FEC4F8985200231A461946EE
:103CB000204600F0C5F816E0D4F8B402C16829B176
:103CC00094F89C02032801D1204688478021204691
:103CD00000F036F92046FFF74CFE04E0FFE78021B4
:103CE000204600F02DF994F8A002012804D184F8B0
:103CF000A05201E0204690470020AAE770B5154683
:103D0000044649B1D4F8B40282691AB194F89C020D
:103D1000032830D0022070BDD4F8941204F5AA70A4
:103D2000032902D005291ED027E0D0E903218A42C9
:103D30000BD9531AC3600846834200D303469AB294
:103D400029462046FFF7EBFD17E0D4F8B4020169DD
:103D500029B194F89C02032801D1204688472046C7
:103D6000FFF71FFE09E000200146C4F89402204638
:103D700000F0E6F801E020469047002070BDD0F842
:103D8000C002FDF736BA000010B504461C481D49B4
:103D9000C0F8E842C4F8C002016008214160022175
:103DA000816000218161C1610162FDF771FB08B191
:103DB000FCF791FB0022D4F8C0021823114604F549
:103DC0003074FCF785FF5823002280212068FCF71F
:103DD0007FFFC023002281212068FCF779FF4FF488
:103DE0008873002201212068FCF772FF4FF4807372
:103DF000002282212068FCF76BFF002010BD00002C
:103E000098650020005C00400A0601F07F01D0F8B0
:103E1000C00201EB810100EBC10002D590F82A003D
:103E2000704790F86A01704710B51C461346D0F8E9
:103E3000C0022246FDF7E6F9BDE81040FFF7C8BE14
:103E400010B5D0F8C002FDF70DFABDE81040FFF73D
:103E5000BFBE70B50022044640231146FFF7E4FFC1
:103E600040260125C4F864613346002280212046A3
:103E7000C4F85851FFF7D8FF6662A56184F89C52D8
:103E80000020C4F894026060C4F8A402D4F8B80218
:103E900028B1D4F8B402002142682046904700209F
:103EA00070BD90F89C12042903D190F89D1280F8FF
:103EB0009C120020704710B590F89C12032904D181
:103EC000D0F8B412C96901B18847002010BD01744F
:103ED0000020704710B5D0F8C002FDF780FBBDE8A8
:103EE0001040FFF775BE70B5044600F52A70054610
:103EF00000F04AF80120C4F89402B4F8AE02C4F805
:103F0000980294F8A80210F01F010AD001290DD0E0
:103F1000022910D000F08001204600F011F80020A6
:103F200070BD2946204600F09EF8F8E72946204655
:103F300000F0CAF9F3E72946204600F01DF9EEE744
:103F400010B5D0F8C002FDF7A6F9BDE81040FFF7A4
:103F50003FBE10B5D0F8C002FDF75CFBBDE81040D5
:103F6000FFF736BE90F89C1280F89D12042180F86D
:103F70009C120020704710B5D0F8C002FDF7C4F9BC
:103F8000BDE81040FFF724BE0A7802704A784270FC
:103F90008A78CB7802EB032242800A794B7902EBD4
:103FA000032282808A79C97902EB0121C18070479E
:103FB0000246002011B1C2F8B412704702207047C7
:103FC00010B5D0F8B42202241AB11268904700B993
:103FD0000024204610BD000070B50E461E4D8978A5
:103FE00004462970012931D894F89C0202280BD08C
:103FF00003280FD031462046FFF7A1FC2978204640
:10400000BDE87040FFF784BCD9B10320616084F83B
:104010009C0209E071B16068884212D0C1B22046AA
:10402000FFF776FC297861602046FFF7C9FF022878
:104030000CD006E0022084F89C0220466160FFF765
:1040400067FC2046BDE87040FFF7ABBC3146204618
:10405000BDE87040FFF773BCD400002010B5FFF737
:1040600078FF002010BD2DE9F0410A78002612F0FB
:10407000600208D0202A01D0402A70D1D0F8B422A2
:10408000926890476DE04B78002201250A2B66D29A
:10409000DFE803F0405D6557650805652C29FFF7EB
:1040A000FFFC5EE004468888D8B9C888C8B948884B
:1040B000802816D200F07F0794F89C02032810D0C5
:1040C00084F89E7239462046FFF704FF2046FFF72A
:1040D00068FC1FB1022084F89C0242E084F89C52E4
:1040E0003FE020463BE0FFF777FF3AE0CB88012B2B
:1040F00035D190F89C32012B04D0022B02D0032B37
:104100002DD104E08260012200F1080116E00122B5
:10411000011D13E090F89C22012A03D0022A01D04D
:10412000032A1CD1CA88022A19D1C560D0F8A4126A
:1041300009B10321C160022200F10C01FFF724FC48
:104140000FE0498801290CD1C0F8A45211E090F881
:104150009C32012B08D0022B06D0032B04D0FFF792
:10416000EEFB3046BDE8F08149880129F9D1C0F85D
:10417000A422FFF716FCF4E72DE9F0410A460446B5
:1041800010780027097910F060030AD0202B01D0A5
:10419000402B50D1D4F8B40211468368204698478A
:1041A0008FE0C0F34110012806D05078D0B3012829
:1041B0002AD003283FD107E0D4F8B402114683681F
:1041C0002046BDE8F041184794F89C02022802D02E
:1041D000032872D10AE071B380296ED02046FFF720
:1041E000AFFE80212046FFF7ABFE6AE0508838B969
:1041F00031B1802904D0D08810B92046FFF7A0FE45
:104200002046FFF7CEFB5CE094F89C020228E2D047
:10421000032852D1508898BB4806F1D02046FFF7BA
:10422000F8FCEDE7FFE794F89C020026022803D093
:10423000032842D112E040E009B180293DD10806AF
:1042400001F07F0000EB800004EB800101D5143108
:1042500001E001F5AA7102220E602AE0080601F0D1
:104260000F0000EB800004EB80000AD5806920B3CA
:1042700001F07F0000EB800004EB800514350BE0BB
:104280001FE0D0F85801C0B101F07F0000EB8000C2
:1042900004EB800505F5AA7541B1802906D02046BA
:1042A000FFF7B2FD10B10120286000E02E6002226D
:1042B00029462046FFF768FB03E011462046FFF73A
:1042C0003EFB3846BDE8F08170B5054608780C46DF
:1042D00010F0600003D0202801D0402816D195F8B6
:1042E0009C02012803D0022801D003280ED1207996
:1042F00001280BD8D5F8B402826828469047E18897
:10430000014306D12846FFF74CFB02E02846FFF7A1
:1043100016FB002070BD704700487047786300208E
:104320002DE9F0470C78002630F8243048F68F123B
:104330001340CA78002A7DD0012A7CD0022A02D0FC
:10434000032A7FD0012648F28002134320F824304C
:104350000D7830F8254048F68F731C402C431443E9
:1043600020F825400D7B48F2C00C48F6BF744CF293
:1043700080074BF68F79EDB391F80080C24630F894
:10438000285048F280181D4045EA080520F82A50B8
:10439000B0F8505091F80080054405EB0815B1F8CD
:1043A000088028F00108A5F80084B0F8505091F872
:1043B0000080054405EB0815B1F80A8028F00108D3
:1043C000A5F808844D78002D0D7830F825804FEA47
:1043D00048487DD0B8F1000F07DA30F8258008EAA8
:1043E000030848EA070820F825800F7830F827509E
:1043F0006D0600E02CE006D530F827501D4045EA58
:104400000C0520F82750CB780D78012B30F825309B
:1044100003EA040301D083F02003134320F825307E
:104420000B7830F8231001EA0901114320F823101A
:10443000304602E003E008E004E0BDE8F08743F422
:10444000007380E743F4C0637DE743F480637AE759
:104450004D782DB3B0F850500F78054405EB071593
:10446000CF8827F00107A5F800740F7830F827509F
:104470006D0606D530F827501D4045EA0C0520F89A
:104480002750CB78012B06D00B7830F82310214031
:1044900081F02001C9E70B7830F823102140C4E7F0
:1044A000B0F850400D78044404EB0514CD8825F095
:1044B0000105A4F80854B0F850400D78044404EB0A
:1044C00005140D6904F20C4475B13E2D14D800E0BA
:1044D00030E04FEA550CED0701D00CF1010C4FF61E
:1044E000FF7505EA8C2511E0258825F4F84525801F
:1044F000258845F4004509E04FEA551CED0601D139
:10450000ACF1010C4FF4004545EA8C2525800D786F
:1045100030F82540640405D530F825401C403C4364
:1045200020F825400B7830F8231001EA090181F4C6
:1045300040517AE7B8F1000F07DA30F8258008EA31
:10454000030848EA070820F825800F7830F827503C
:104550006D0606D530F827501D4045EA0C0520F8B9
:1045600027500D7830F8253003EA090383F44053CF
:10457000134320F825308EE7002070472DE9F043E3
:1045800091F80C804F780A7848F6BF7C4BF68F790B
:1045900048F2800348F2C0054CF2800648F68F745A
:1045A000B8F1000F28D0002F30F822704FEA4747AB
:1045B00048D0002F05DA30F822702740374320F822
:1045C00022700A7830F822707F0605D530F8227004
:1045D00027402F4320F822700D7830F82520224004
:1045E000324320F825200C7830F8242002EA0C020F
:1045F0001A4320F824201AE07FB130F822607606B2
:1046000005D530F8226026402E4320F822600A7833
:1046100030F8221001EA0C010EE030F822506D044F
:1046200005D530F822502540354320F822500A782D
:1046300030F8221001EA0901194320F82210002065
:10464000BDE8F083002F05DA30F8227027403743A9
:1046500020F822700A7830F82260760605D530F806
:10466000226026402E4320F822600E7830F8262063
:1046700022402A4320F826200C7830F8242002EA31
:1046800009021A4320F82420C1E7002070470020C7
:104690007047012120F8401F0021018081800182A4
:1046A0000846704730F8401F21F43F410180002048
:1046B00070470020704730B50A7BB2BB4A7848F695
:1046C0008F7548F28004C2B10B7830F8232052066F
:1046D00007D530F823202A4048F2C0052A4320F8A5
:1046E0002320CA78012A20D00A7830F8221048F610
:1046F000BF73194081F0200114E00A7830F82230AD
:104700005B0407D530F822302B404CF280052B4358
:1047100020F822300A7830F822104BF68F731940B7
:1047200081F44051214320F82210002030BD10B503
:104730004A780978002A48F2800330F8212005D011
:1047400048F6BF74224082F0100204E04BF68F74EA
:10475000224082F480521A4320F82120002010BD0C
:104760002DE9F0470E464B78097B04464FF00009CF
:1047700048F68F7248F2800A4FF6FF774FF40048F0
:10478000012B09D000296ED0F07802286CD00128C6
:104790006BD00120BDE8F087B5693069854200D94A
:1047A0000546C9B1F17848F28013022923D0317847
:1047B00034F821001040184324F82100306A401BCF
:1047C0003062307834F82010490671787ED500299F
:1047D0007DD001297CD03FE1ABB2F28820467169DF
:1047E00000F0F6FAB4F850003178204400EB0110E4
:1047F000A0F80454EAE0316A81426AD9317834F889
:1048000021001040184324F82100306A401B306218
:10481000307834F82010490671786CD511B101292F
:1048200024D02AE0B4F85010214401EB001000F22B
:104830000C404DB13E2D0FD86908EA0700D0491C45
:1048400007EA8121018018E0018821F4F841018004
:10485000018841F40041F5E76909EA0600D1491EE3
:1048600048EA8121EEE79CE1BCE126E2B4F8502061
:10487000111901EB0010A0F80C547289ABB220465C
:10488000716900F0A5FA7069284470613169306A75
:10489000884202D9401B306202E00546C6F82090EB
:1048A000707800287CD1B4F850003178204400EBB7
:1048B000011000F204406DB13E2D13D86908EA07DB
:1048C00000D0491C07EA8121018012E001E19BE050
:1048D000BBE084E0018821F4F8410180018841F4C3
:1048E0000041F1E76909EA0600D1491E48EA812141
:1048F000EAE7328965E011B1012921D027E0B4F857
:104900005010214401EB001000F204404DB13E2D47
:104910000FD86908EA0700D0491C07EA8121018005
:1049200015E0018821F4F8410180018841F400413B
:10493000F5E76909EA0600D1491E48EA8121EEE758
:10494000B4F85010214401EB0010A0F8045432894F
:10495000ABB22046716900F03BFA7069284470617F
:104960003169306A884202D9401B306202E0054654
:10497000C6F82090707800287ED1B4F850003178C5
:10498000204400EB011000F20C4055B13E2D10D830
:104990006908EA0700D0491C07EA812101800FE07D
:1049A00072E0018821F4F8410180018841F400415E
:1049B000F4E76909EA0600D1491E48EA8121EDE7DA
:1049C0007289ABB22046716900F002FA317834F88E
:1049D000210048F6BF72104080F03000C0E132780C
:1049E00034F8220048F68F63184040EA0A0024F8A1
:1049F0002200B4F850003278204400EB02108BB251
:104A0000A0F804343289DDE7B4F85010214401EBFA
:104A1000001000F20C404DB13E2D0FD86908EA0796
:104A200000D0491C07EA8121018015E0018821F4AA
:104A3000F8410180018841F40041F5E76909EA067F
:104A400000D1491E48EA8121EEE7B4F8502011193F
:104A500001EB0010A0F80C547289ABB220467169CA
:104A600000F0B6F97069284470613169306A884293
:104A700003D9401B306203E06EE00546C6F8209083
:104A8000002DA3D0707858B101287FF41EAFB4F880
:104A900050003178204400EB0110A0F8045428E7BE
:104AA000B4F850003178204400EB011101F20441C8
:104AB0003E2D06D86808EA0700D0401C07EA80208F
:104AC00005E06809EA0600D1401E48EA8020088017
:104AD0000FE711B1012921D027E0B4F8501021448B
:104AE00001EB001000F204404DB13E2D0FD86908D3
:104AF000EA0700D0491C07EA8121018015E00188FE
:104B000021F4F8410180018841F40041F5E7690989
:104B1000EA0600D1491E48EA8121EEE7B4F85010B8
:104B2000214401EB0010A0F804543289ABB22046B6
:104B3000716900F04DF97069284470613169306A1B
:104B4000884202D9401B306202E00546C6F8209038
:104B5000002D96D0707858B101287FF420AFB4F8BA
:104B600050100819317800EB0110A0F80C5427E719
:104B7000B4F850003178204400EB011101F20C41EF
:104B80003E2D06D86808EA0700D0401C07EA8020BE
:104B900005E06809EA0600D1401E48EA8020088046
:104BA0000EE7B1693069814202D9091AB161B5E0F5
:104BB0000846C6F81890B1E0088820F4F84008804C
:104BC000088840F400400BE03E2875D84208C00732
:104BD00000D0521C07EA822002E000BF48EA82208F
:104BE0000880B5E093B9B4F850003178204400EB68
:104BF0000110316900F2044069B13E2913D84B0815
:104C0000C90700D05B1C07EA83210180707888B156
:104C1000012832D03AE0018821F4F841018001886E
:104C200041F40041F1E74B09C90600D15B1E48EA97
:104C30008321EAE7B4F850003178204400EB0110FA
:104C4000316900F20C4049B13E290FD84B08C90721
:104C500000D05B1C07EA8321018017E0018821F462
:104C6000F8410180018841F40041F5E74B09C9068C
:104C700000D15B1E48EA8321EEE7B4F85010081912
:104C8000317800EB0110318AA0F80C14F069A8B358
:104C9000317834F82100430401D5430603D444F2AB
:104CA0004003184254D134F82100104048F2C002A9
:104CB000104324F821004BE03CE0B16930698142A7
:104CC00002D9091AB16102E00846C6F818908BB9FA
:104CD000B4F850103278214401EB021101F2044182
:104CE00068B13E2813D84208C30700D0521C07EA17
:104CF00082220A80717889B1012921D028E00A88AE
:104D000022F4F8420A800A8842F40042F1E742099C
:104D1000C30600D1521E48EA8222EAE7B4F85010D6
:104D20003278214401EB021101F20C4100287FF49A
:104D30004BAF41E74209C0067FF450AF521E4DE72A
:104D4000B4F850201119327801EB0211A1F80C04CB
:104D5000317834F821004BF68F72104080F44050C7
:104D600040EA0A0024F82100002013E50021A0F801
:104D700044104FF43F41A0F840100020704700005D
:104D80000148FCF7DBBA000098650020B0F8440049
:104D90007047000010B500EB42005C0800F5806031
:104DA00009D000BF30F8042B01F8012B120A01F8DA
:104DB000012B641EF6D1DA0701D00088087010BDFF
:104DC0000020704711B98021A0F84C1000207047D6
:104DD00010B55B1C00EB42005B0800F5806009D059
:104DE00011F8012B11F8014B42EA042220F8042BA0
:104DF0005B1EF5D110BDFEE70907090E002804DB94
:104E000000F1E02080F80014704700F00F0000F17E
:104E1000E02080F8141D704710B5094800F02CFB05
:104E20000020074A01460C3202EB0013401C1970A7
:104E30000828F9D3BDE81040014800F038BB000055
:104E4000F001002010B504000AD00B4800F014FB5C
:104E500020680178012907D072B6FBF73CFBFEE71A
:104E600072B6FBF738FBFEE7001D00F005FBBDE85E
:104E70001040014800F01BBBF001002010B50400F9
:104E80000AD00B4800F0F8FA20680178012907D011
:104E900072B6FBF720FBFEE772B6FBF71CFBFEE7E2
:104EA00000210170BDE81040014800F000BB000087
:104EB000F001002010B5040010D0164800F0DCFA14
:104EC0001448002110F10C0000EB011212783AB1E5
:104ED000491C0829F8D30F4800F0E9FA002010BD5A
:104EE00000EB01100121206001702168091D0CD028
:104EF0000020024641F82020401C0228FAD30A7202
:104F0000044800F0D4FA012010BD72B6FBF7E3FAB2
:104F1000FEE70000F001002010B504000AD00B48A5
:104F200000F0AAFA20680178012907D072B6FBF7D1
:104F3000D2FAFEE772B6FBF7CEFAFEE7001D00F0EC
:104F4000B6FABDE81040014800F0B1BAF001002007
:104F5000704700001CB5FBF7F9FDFEF78BF9FDF774
:104F6000F9FCFDF7BBFCFDF73DFDFDF75BFDFDF733
:104F70007DFDFDF79DFDFDF7FDFDFDF72FFEFDF726
:104F800061FEFDF793FEFDF719FFFDF74DFFFDF7FD
:104F900067FFFDF781FFFDF7EDFEFDF7C7FC00F0B1
:104FA0001CF800210F20CDE900010B46802202A150
:104FB000024800F099FCFEE720000000D9540008E8
:104FC00001460020842900D0C81C704710B500B9E4
:104FD000012000F04DFB002010BD10B500F0C4FB17
:104FE000002010BD7FB50D4604464169B0F90800A8
:104FF00081B1A16971B1FFF7E3FFD4E905128DE832
:105000000700D4E900102B46226900F09AFC0390B7
:1050100004B070BDFFF7D4FF03A9CDE90001208AD9
:105020002B4682B2D4E9001000F05EFC012801D0CA
:105030000020EDE70398EBE72DE9F041184C0F460F
:10504000054666692068001D00F04EFA38B92068F0
:1050500090F82C1001208840A1698143A161681C4F
:1050600007D137B12168BDE8F0410E48091D00F0B5
:105070007FBA20683544B5424560216805D2A068F2
:10508000BDE8F041091D00F05BBA6068091D00F041
:1050900057FA206B854200D22563BDE8F0810000FD
:1050A00014000020A00A00202DE9F041054600F080
:1050B0006BFA2D4C2069401C206120682B4F10B1E9
:1050C000E06930B32BE025602069012827D1002654
:1050D00006EB860007EB800000F024FA761C102E09
:1050E000F6D3234800F01EFA2148143000F01AFAD3
:1050F0001F48283000F016FA1D483C3000F012FA24
:105100001B48503000F00EFA194860601430A0605F
:1051100005E02068E96AC06A884200D82560E06A34
:10512000401CE062E96A0120A26988401043A06146
:1051300001EB810007EB8000291D00F019FA00F057
:1051400043FAE06900280CD02068E96AC06A884206
:1051500007D208494FF080500860BFF34F8FBFF36C
:105160006F8FBDE8F08100001400002010090020BE
:10517000500A002004ED00E010B5044690F85100FC
:1051800058B101280CD002280FD0502080F311888C
:10519000BFF34F8FBFF36F8FFEE7206B00F028FA4D
:1051A0002046BDE8104000F023BA10BD10484FF46F
:1051B000A041420706D0C01D0D4920F00700411A4A
:1051C000C1F5A0410B4A00230144C2E9000308399C
:1051D000103A21F0070111604B600B600B1AC0E917
:1051E000001393604FF000405360D06070470000A0
:1051F000B40A002060000020144E154CA6F5BE77BE
:105200004FF08058DFF84C9012E000BF00F0BCF97E
:10521000F068C568281D00F067F92069401E20610C
:10522000E068401EE06000F0CFF92846FFF7A4FFD9
:10523000E0680028EAD138680128F9D9C9F8008067
:10524000BFF34F8FBFF36F8FF2E700008C0A00208F
:105250001400002004ED00E02DE9F0479A46DDE956
:10526000098481466FF00303206B03EB8202104434
:10527000089D20F00706700707D0502080F31188A2
:10528000BFF34F8FBFF36F8FFEE723180A5C83F8DD
:1052900034200A5C12B1401C1028F6D3002784F891
:1052A0004370102D00D30F25E562C4E91157201D6E
:1052B00000F043F904F1180000F03FF92461C5F152
:1052C00010006462A061E76484F850705246494659
:1052D000304600F0BFF82060B8F1000F01D0C8F8E8
:1052E0000040BDE8F087000030B5114900E01146EC
:1052F0000A688242FBD34B685C18844203D1406841
:1053000018444860084643681C18944209D1084C68
:10531000103C2468A24209D052681A4442600A68CC
:1053200012680260814200D0086030BD0460F9E775
:105330006000002006484168096829B14168C968D1
:10534000C9684968016370474FF0FF31FAE7000010
:105350001400002008484068401C4FF0500080F3C3
:10536000118804D0BFF34F8FBFF36F8FFEE7BFF3F9
:105370004F8FBFF36F8FFEE7680000202DE9F041EB
:105380000546002700F026FA314E306808B9FFF7CD
:105390000DFFF06805424BD1C5B3083568070ED044
:1053A00005F00700C0F108000544680707D0502049
:1053B00080F31188BFF34F8FBFF36F8FFEE72DB3DC
:1053C0007068854234D82248103001460C6801E0EC
:1053D00020460C466168A94202D221680029F7D113
:1053E00031688C4224D00768216801606068083702
:1053F000411B10290FD96019420708D0502080F3B3
:105400001188BFF34F8FBFF36F8FFEE710E041604D
:105410006560FFF769FF61687068401A7060B26884
:10542000904200D2B060F06801430020C4E900015E
:1054300000F016FB780707D0502080F31188BFF3E7
:105440004F8FBFF36F8FFEE73846BDE8F081000055
:105450005000002010B5031F4FF080741C601B1F0C
:1054600021F001011960191F024B0B6014394038FB
:105470000A6010BD5553000810B530B1017A0229F9
:1054800007D372B6FBF727F8FEE772B6FBF723F8EF
:10549000FEE75022EFF3118382F31188BFF34F8FA1
:1054A000BFF36F8F8A00491C0172835010BD10B585
:1054B00048B1017A491EC9B20172022907D372B6F6
:1054C000FBF709F8FEE772B6FBF705F8FEE750F8C0
:1054D000210080F3118810BD10B5FFF739FDBDE83C
:1054E0001040002000F0EAB8D0E9013201699A606A
:1054F000D0E901235A604A68824201D182684A6039
:10550000002202610868401E0860086870470000B9
:10551000034B036003F15400086080201060704763
:105520007C02002000F108014FF0FF32C0E90112B7
:10553000C160016100210160704700210161704775
:1055400030B50B685A1C02D000F1080202E0026973
:1055500004E02246546825689D42FAD953684B609E
:1055600099608A60516008610168491C016030BD22
:1055700042684A6093688B609368596091600861E3
:105580000168491C01607047502080F31188BFF307
:105590004F8FBFF36F8F0A494868401C486001284D
:1055A0000CD10848006810F0FF0F07D0502080F39E
:1055B0001188BFF34F8FBFF36F8FFEE77047000076
:1055C0006800002004ED00E00849486828B1401E4A
:1055D000486001D180F311887047502080F3118812
:1055E000BFF34F8FBFF36F8FFEE70000680000200E
:1055F00070B5002827D0144DA0F108046168E86850
:10560000014207D1502080F31188BFF34F8FBFF3C1
:105610006F8FFEE722683AB1502080F31188BFF304
:105620004F8FBFF36F8FFEE78143616000F0D2F8C8
:1056300060686968084468602046FFF755FEBDE869
:10564000704000F00DBA70BD500000204FF0E02017
:1056500000210161816105494FF47A720968B1FB4B
:10566000F2F1491E416107210161704710000020DD
:1056700010B5020014D00F48806B38B1502080F371
:105680001188BFF34F8FBFF36F8FFEE700F0A2F8D2
:1056900000211046FFF7D0FC00F0E2F9002807D106
:1056A00005494FF080500860BFF34F8FBFF36F8FF5
:1056B00010BD00001400002004ED00E070B50546A8
:1056C000FFF762FF244C05B92568281DFFF70CFF82
:1056D00058B9E86A214A00EB800152F8211021B93B
:1056E00001218140A0698843A061A86A18B105F131
:1056F0001800FFF7F9FEE06A401CE062206885426E
:1057000007D1291D1648FFF733FFE068401CE06011
:1057100007E02069401E20612846FFF72DFDFFF7B6
:1057200009FEFFF751FFE069002814D02068854288
:1057300011D1A06B38B1502080F31188BFF34F8F87
:10574000BFF36F8FFEE707494FF080500860BFF34B
:105750004F8FBFF36F8F70BD140000201009002021
:105760008C0A002004ED00E010B586B000240394FC
:1057700005AA04A903A80494FFF7CAFEDDE9030102
:105780000094CDE9011000230EA11048059A00F005
:10579000D8F80F490028486311D0502080F31188B1
:1057A000BFF34F8FBFF36F8F4FF0FF3008630120BF
:1057B000C8614C6106B0BDE8104000F041B806B0C9
:1057C00010BD000049444C4500000000F95100089C
:1057D000140000200248816B491C8163704700005F
:1057E000140000201448816B11B1012141627047FF
:1057F000002141628169B1FA81F1C1F11F0101EB20
:1058000081020E4951F822306BB101EB820101F1A6
:1058100008034A6852684A609A4201D152684A6055
:10582000D16801607047502080F31188BFF34F8F1B
:10583000BFF36F8FFEE70000140000201009002066
:105840001CB5264908780190FF20087008788DF86B
:1058500000009DF800009DF8002000F0F00090424C
:1058600007D0502080F31188BFF34F8FBFF36F8FA5
:10587000FEE79DF800001A4B00F05000187007205A
:10588000986005E09DF8002052008DF80020401E31
:105890009DF800201206F5D49860032807D0502008
:1058A00080F31188BFF34F8FBFF36F8FFEE74FF484
:1058B00040709860019808700A48016841F47001CE
:1058C0000160016841F070410160FFF7BFFE0020F8
:1058D0005860FAF7AFFC00201CBD000000E400E0B7
:1058E0006800002020ED00E02DE9FF5F8346DDE940
:1058F0000E87994616468A469000FFF73FFD050041
:105900001CD05420FFF73AFD040014D0002025637A
:1059100084F85100CDE90240CDE900874B4632467C
:1059200051465846FFF798FC2046FFF7BDFB012083
:1059300004B0BDE8F09F2846FFF75AFE4FF0FF3055
:10594000F6E7F0B585B0DDE90B640A9DA6B1DCB1E0
:10595000542700972663022684F85160002604AF7E
:10596000CDE90246CDE90057FFF776FC2046FFF768
:105970009BFB049805B0F0BD502080F31188BFF365
:105980004F8FBFF36F8FFEE7502080F31188BFF376
:105990004F8FBFF36F8FFEE72DE9F0412E4C0027AC
:1059A000A06B40B1206A401C2062606A00B10127F0
:1059B0003846BDE8F0816669761C666113D160687F
:1059C000006838B1502080F31188BFF34F8FBFF3C8
:1059D0006F8FFEE76068A1686160A060A06A401CEC
:1059E000A062FFF7A7FC206BDFF87080864209D326
:1059F0006068006880B16068C068C5686868864291
:105A00000DD220632068C06A00EB800158F82100A5
:105A10000128CAD90127C8E74FF0FF30F1E7281D58
:105A2000FFF762FDA86A18B105F11800FFF75CFDE9
:105A3000E86A0121A26981401143A16100EB800164
:105A400008EB8100291DFFF793FDE86A2168C96A08
:105A50008842CDD30127CBE7140000201009002095
:105A60002DE9F0472C4D00242746A86B38B1FFF7ED
:105A70008BFDA86B401EA863A86B40B146E0502088
:105A800080F31188BFF34F8FBFF36F8FFEE7296953
:105A9000224E0120D1B3A6F5B47980463068E8B132
:105AA000F068C46804F11800FFF71EFD201DFFF721
:105AB0001BFDE06AAA6908FA00F11143A96100EB35
:105AC000800109EB8100211DFFF752FDE06A296882
:105AD000C96A8842E2D3C5F82480DFE70CB1FFF73A
