:020000040800F2
:10000000483E002069020008D3240008ED1E0008C5
:10001000D12400084F040008F52800080000000063
:10002000000000000000000000000000D1010008F6
:10003000510400080000000015020008DD2400083B
:10004000830200088302000883020008830200087C
:10005000830200088302000883020008830200086C
:10006000830200088302000883020008830200085C
:10007000830200088302000883020008830200084C
:10008000830200088302000883020008830200083C
:10009000830200088302000883020008830200082C
:1000A000830200088302000883020008830200081C
:1000B000830200088302000883020008830200080C
:1000C00083020008830200088302000883020008FC
:1000D00083020008830200088302000883020008EC
:1000E00083020008830200088302000883020008DC
:1000F00083020008830200088302000883020008CC
:1001000083020008830200088302000883020008BB
:100110008302000883020008830200088925000882
:10012000830200088302000883020008830200089B
:1001300000F002F800F03CF80AA090E8000C8244BD
:100140008344AAF10107DA4501D100F031F8AFF29A
:10015000090EBAE80F0013F0010F18BFFB1A43F0A5
:10016000010318472834000048340000103A24BF27
:1001700078C878C1FAD8520724BF30C830C144BF0C
:1001800004680C607047000000230024002500264E
:10019000103A28BF78C1FBD8520728BF30C148BFEA
:1001A0000B6070471FB500F0DBF81FBD10B510BD28
:1001B00000F0E8F81146FFF7F5FF02F04AFC00F006
:1001C00006F903B4FFF7F2FF03BC00F00FF90000DB
:1001D000224B19680868B0E8F00F80F30988BFF374
:1001E0006F8F4FF0000080F311884EF00D0E7047B6
:1001F0000000000006480068006880F3088862B6C6
:1002000061B6BFF34F8FBFF36F8F00DF00BF00BF3A
:1002100008ED00E0EFF30980BFF36F8F0F4B1A6812
:1002200020E9F00F106008B54FF0500080F31188FE
:10023000BFF34F8FBFF36F8F02F0E8FF4FF0000066
:1002400080F31188BDE8084019680868B0E8F00F2D
:1002500080F30988BFF36F8F704700BF1400002040
:10026000EFF30580704700000948804709480047C0
:10027000FEE7FEE7FEE7FEE7FEE7FEE7FEE7FEE756
:10028000FEE7FEE704480549054A064B70470000B3
:10029000872500083101000848340020483E00202E
:1002A000483A0020483A002010B5203AC0F00B80B0
:1002B000B1E81850203AA0E81850B1E81850A0E86A
:1002C0001850BFF4F5AF5FEA027C24BFB1E81850C4
:1002D000A0E8185044BF18C918C0BDE810405FEA34
:1002E000827C24BF51F8043B40F8043B08BF7047B0
:1002F000D20728BF31F8023B48BF11F8012B28BFB5
:1003000020F8023B48BF00F8012B70474FF0000275
:1003100000B5134694469646203922BFA0E80C50FB
:10032000A0E80C50B1F12001BFF4F7AF090728BFD6
:10033000A0E80C5048BF0CC05DF804EB890028BF52
:1003400040F8042B08BF704748BF20F8022B11F07B
:10035000804F18BF00F8012B7047704770477047F7
:1003600070B5064C7C44064D7D4403E02068204473
:100370008047241DAC42F9D170BD0000443200001A
:1003800044320000754600F02BF8AE460500694681
:10039000534620F00700854618B020B5FFF772FFDE
:1003A000BDE820404FF000064FF000074FF0000876
:1003B0004FF0000B21F00701AC46ACE8C009ACE8F7
:1003C000C009ACE8C009ACE8C0098D46704710B55B
:1003D0000446AFF300802046BDE81040FFF7F1BEB1
:1003E00000487047E433002070470000014918209E
:1003F000ABBEFEE72600020070B5044600688168C7
:10040000C943C90717D1816821F00101816000F05B
:1004100059FA05460AE000BF00F054FA401B0228D2
:1004200004D920688068C043C00706D0206880686F
:10043000C043C007F0D0002070BDA06A40F010009B
:10044000A062E06A40F00100E062012070BDFEE7BA
:10045000704772B6FEE70000F8B50024009490F8EB
:1004600024202546012A12D0012280F824204A683F
:100470001F23072A0DD20668776B521E02EB8202F9
:1004800093409F430B6893401F43776319E002201A
:10049000F8BD06680D2A0AD2376BD21F02EB820222
:1004A00093409F430B6893401F43376309E0F76A0B
:1004B0000D3A02EB820293409F430B6893401F4327
:1004C000F7620A68072306680A2A0AD3F7680A3A15
:1004D00002EB420293409F438B6893401F43F760B7
:1004E00008E0376902EB420293409F438B689340D8
:1004F0001F4337610A68102A01D0112A20D1124BFC
:1005000002689A4217D193681B0219D4936843F486
:10051000000393600968102912D10C490C4A09683C
:10052000B1FBF2F101EB8101490000E0491E0091AD
:100530000029FBD104E0816A41F02001816201249D
:1005400080F824502046F8BD00240140100000200F
:1005500040420F002DE9F04104004FF000057FD02C
:10056000A06A002628B9E66284F82460204600F0DC
:1005700081F82046FFF740FFA16AC90600D420B1E8
:10058000A06A40F01000A0626AE0A16A21F48851DC
:1005900041F00201A162334923688B42E16904D131
:1005A000B1F5402F01D14FF40021277B4FF4807C1F
:1005B00041EA470261680A43A168614508D0012900
:1005C00006D0002194F814E0BEF1010F02D00AE039
:1005D0006146F7E7C7B1A76A47F02007A762E76A55
:1005E00047F00107E7625F6827F469470F435F60E0
:1005F000236899681C4F394011439960A16861458F
:100600000BD0012909D00CE0DFF860E0A7690EEB00
:1006100047370F4347F40061E5E7218A0D05A5F54B
:1006200080152168CB6A23F470032B43CB622168C9
:1006300089680F4B1940914208D1E662A16A21F006
:10064000020141F00101A162BDE8F081A06A20F041
:10065000020040F01000A062E06A40F00100E06299
:100660000120F1E7003C0140FDF7E1FF00E0FFFF62
:10067000FE0E1FFF00B585B000210091019102918F
:10068000039100680E49884217D10E48816941F4F0
:1006900000418161816901F400410491816941F067
:1006A000100181618069694600F010000490032008
:1006B00000900190044800F009F805B000BD00006A
:1006C000003C014000100240001001402DE9F84FAD
:1006D000DFF8C891002409F1040A0AF1040B23464B
:1006E0000F270BF1040ED1E00125A54006EA050213
:1006F000AA4276D1DFF8A8C14E68A6EB0C08664581
:100700002BD00DDC032E34D005DC36B3012E19D0EE
:10071000022E2FD11BE0112E16D0122E2AD119E055
:10072000B8F5881F19D006DCB8F5803F15D0B8F5AC
:10073000801F1FD111E0B8F5001F0ED0B8F5041FBF
:1007400018D10AE0CB6815E0CB681B1D12E0CB681E
:1007500008330FE0CB680C330CE08B682BB1012B16
:100760004FF0080303D0456104E0042302E0056173
:1007700000E00023FF2A01D8064601E000F104064C
:100780004FEA840501D9A5F12005D6F8008007FAC3
:1007900005FC28EA0C0803FA05F548EA0508C6F83E
:1007A00000804D68ED0070D53E4DAE6946F0010603
:1007B000AE61AD6924F0030605F0010500953A4DE0
:1007C00006EB050CDCF80850A607360F07FA06F80A
:1007D00025EA0805DFF8D480404503D14FF0000832
:1007E00025E052E0DFF8C880404502D14FF0010813
:1007F0001DE0DFF8C080404502D14FF0020816E04E
:10080000DFF8B480404502D14FF003080FE0DFF875
:10081000AC80404502D14FF0040808E0DFF8A0802A
:10082000404502D14FF0050801E04FF0060808FAF4
:1008300006F848EA0508CCF808804D68D9F8006049
:10084000ED034D4601D5164300E096432E604D68FA
:10085000DAF80060AD03554601D5164300E0964333
:100860002E604D68DBF80060ED025D4601D5164351
:1008700000E096432E604D68DEF80060AD027546DC
:1008800001D5164300E096432E60641C0A681646A4
:10089000E2407FF429AFBDE8F88F0000000401407A
:1008A000000011100010024000000140000801404B
:1008B000000C0140001001400014014000180140EC
:1008C000001C0140014880687047000004000020BF
:1008D00070B5040025D094F83D00002520B984F8B7
:1008E0003C50204600F0B8F8242084F83D002068F1
:1008F000016821F0010101602068016841F40041B4
:1009000001602068016821F40041016000F04CFBA7
:100910004D4A6168914201D84C4900E04C498842F7
:1009200001D2012070BD4B492368B0FBF1F15E6834
:1009300026F03F060E435E606368934206D94FF48B
:10094000967359434FF47A73B1FBF3F12368491C52
:100950001E6A26F03F06314319626168914210D841
:100960004900401EB0FBF1F2521CC2F30B02042AF4
:1009700001D2042022E0B0FBF1F0401CC0F30B00D8
:100980001CE0A268F2B301EBC10303EB0116431EA6
:10099000B3FBF6F35B1C43F480431B0549D092B3D1
:1009A00001EBC10202EB0111401EB0FBF1F0401C53
:1009B000C0F30B0040F4804040F400402168CA6955
:1009C0004CF6FF739A431043C861D4E90710014302
:1009D0002068026822F0C00211430160D4E90301DB
:1009E00001432068826848F2FF339A4311438160D3
:1009F000D4E9050108432168CA6822F0FF021043C8
:100A0000C86001E00EE016E02068016841F00101D5
:100A100001602564202084F83D00256384F83E5061
:100A2000002070BD01EB4106431EB3FBF6F35B1CD7
:100A3000B3E70120C2E701EB4101401EB0FBF1F03A
:100A4000401CC0F30B00B7E7A086010080841E00A5
:100A500000093D0040420F0010B586B00021009112
:100A60000191029103910068104988421BD1104CFA
:100A7000A06940F00800A061A069694600F0080084
:100A800004904FF4406000901220019003200390E6
:100A90000848FFF71BFEE06940F48000E061E06970
:100AA00000F48000049006B010BD00000058004023
:100AB00000100240000C0140024881680278114495
:100AC0008160704704000020074810B5016841F0BC
:100AD00010010160032000F0A7F80F2000F006F8D5
:100AE00000F050F8002010BD0020024030B505464F
:100AF0001F4887B0C16941F02001C161C06906A9E2
:100B000000F02000009001A800F02EFA0498B0B187
:100B100000F04AFA40001749174AB0FBF1F11748B4
:100B2000491E0260416040F2E7320021C0E9032122
:100B30008160816100F03CFD040003D015E000F00D
:100B400033FAE8E70D4800F081FD04000DD13720AD
:100B500000F03CF8102D07D200222946372000F083
:100B600043F80748056000E0012407B0204630BD87
:100B70000010024040420F0000140040F80900201D
:100B8000080000200F4808B5816941F0010181612A
:100B9000816901F001010091C16941F08051C16199
:100BA000C069002200F0805000900F21901E00F0DC
:100BB0001BF80548416821F0E06141F00071416097
:100BC00008BD00000010024000000140002809DBC1
:100BD00000F01F02012191404009800000F1E02057
:100BE000C0F8001170470000F0B40E4B1B680C46B3
:100BF000C3F30223C3F10705042D00D90425191DF1
:100C0000072901D2002300E0DB1E012606FA05F1C8
:100C1000491E214099409E40761E16403143F0BC4B
:100C200001F069BE0CED00E0064900F0070208681B
:100C30004FF6FF03184040EA0220034A10430860C1
:100C4000704700000CED00E00000FA052DE9F041CE
:100C500086B0040004D094F8A902002520B108E071
:100C6000012006B0BDE8F08184F8A852204600F0CB
:100C70005BF8032084F8A902206801F032FE04F139
:100C80001001142288466846FFF70EFB94E80F0017
:100C900001F01AFE0226D0BB0021206801F028FED8
:100CA000002001270FE000BF00EB800104EBC10131
:100CB00081F8297001F8280FC881CD700D614D6150
:100CC000401CC0B28D6161688142EDD8002011E006
:100CD00000EB800104EBC10181F8695181F86801E2
:100CE00081F86B51C1F87851C1F87C51401CC0B2F9
:100CF000C1F8805161688142EAD8142241466846B1
:100D0000FFF7D2FA94E80F0001F0E2FD10B184F889
:100D1000A962A5E784F8245084F8A972206801F03C
:100D2000D5FD00209DE7000008B50068064988420F
:100D300008D10648C16941F40001C161C06900F4ED
:100D40000000009008BD0000005C00400010024060
:100D50002DE9F84305460078354CC00754D0E069CA
:100D60000026C00008D4E06940F08050E061E069EE
:100D7000012600F0805000902E480168C90512D469
:100D80000168804641F480710160FFF79BFD0746D2
:100D900005E000BFFFF796FDC01B642823D8D8F8F4
:100DA0000000C005F6D5206A10F4407021D0A98853
:100DB00001F4407181421CD0206A1F49012220F4B5
:100DC00040700A6000220A602062C00711D0FFF75D
:100DD00079FD074641F2883808E000BFFFF772FD51
:100DE000C11B414502D90320BDE8F883206A800772
:100DF000F4D5206A696820F44070084320621EB16F
:100E0000E06920F08050E0612878800705D56068AF
:100E1000A96820F44040084360602878C00605D5E2
:100E20006068696920F48000084360600020DBE7A7
:100E30000010024000700040400442422DE9F0479B
:100E40000F46050061D0434E306800F00700B842FD
:100E500009D2306820F0070038433060306800F075
:100E60000700B84251D128683B4C810712D5400792
:100E700003D5606840F4E06060602878000703D51F
:100E8000606840F4605060606068A96820F0F0001D
:100E9000084360602878C00728D06868012810D00F
:100EA0002168022810D0890700292EDA616821F014
:100EB000030101436160FFF705FD804641F2883977
:100EC0000DE021688903EFE78901EDE7FFF7FAFC00
:100ED000A0EB0801494502D90320BDE8F08760680E
:100EE000696800F00C00B0EB810FEFD1306800F0C2
:100EF0000700B8420BD9306820F007003843306053
:100F0000306800F00700B84201D00120E5E72878FA
:100F1000400705D56068E96820F4E0600843606038
:100F20002878000706D56068296920F4605040EAF7
:100F3000C100606000F058F86168084AC1F303110D
:100F4000515CC8400649086006480068FFF7CEFDBE
:100F50000020C2E70020024000100240683500086F
:100F600010000020080000200F2202600C4A536885
:100F700003F003034360536803F0F0038360536896
:100F800003F4E063C36052684FF4E06303EAD20203
:100F900002610448006800F0070008607047000024
:100FA00000100240002002400448054900684968DA
:100FB000044AC1F30221515CC84070471000002070
:100FC0000010024078350008044805490068496867
:100FD000044AC1F3C221515CC84070471000002090
:100FE000001002407835000813A185B00FC98DE8C4
:100FF0000F0015A0154A00680490516801F00C001C
:10100000042804D0082804D0114805B070471148BE
:10101000FBE7C1F38343C9031DF8030009D55168F9
:1010200004AAC1F34041515C0A4A5043B0FBF1F0BD
:10103000EBE709494843E8E7020304050607080906
:101040000A0B0C0D0E0F10100102000000100240E0
:1010500000127A000024F40000093D002DE9F84F49
:10106000040070D02078C04DC00749D06868C0F334
:101070008100012807D06868C0F38100022809D1E7
:101080006868C00306D52868800339D560680028E1
:10109000E7D035E06068B0F5803F0BD010B1B0F517
:1010A000A02F11D0286820F480302860286820F410
:1010B000802002E0286840F480302860606890B1A9
:1010C000FFF700FC06460AE0286840F4802028600C
:1010D000F0E700BFFFF7F6FB801B642873D8286891
:1010E0008003F7D50CE0FFF7EDFB064605E000BFF7
:1010F000FFF7E8FB801B6428F0D828688003F7D44A
:1011000020789A4E80074FF001094FF0000839D53A
:10111000686810F00C0F07D06868C0F381000228DF
:1011200009D16868C00306D42868800714D52069EF
:10113000012808D110E02069B0B1C6F80090FFF78F
:10114000C1FB074605E00AE1FFF7BCFBC01B022814
:10115000C4D828688007F7D52868616920F0F800AE
:1011600040EAC10028600DE0C6F80080FFF7AAFB46
:10117000074604E0FFF7A6FBC01B022823D8286817
:101180008007F7D4207800072CD57948A169D9B118
:10119000C0F80090FFF796FB074604E0FFF792FBCC
:1011A000C01B02280FD8686A8007F7D571484FF432
:1011B000FA510068B0FBF1F0009000BF0098411EAA
:1011C0000091FAD20EE080E0C0F80080FFF77AFBD1
:1011D000074604E0FFF776FBC01B022875D8686A53
:1011E0008007F7D42078400760D5E8690027C00061
:1011F00008D4E86940F08050E861E869012700F010
:10120000805000905C480168C90513D4016883468A
:1012100041F480710160FFF755FB824606E000BF94
:10122000FFF750FBA0EB0A0064284ED8DBF8000063
:10123000C005F5D5E06801280AD008B1052813D00B
:10124000286A20F001002862286A20F0040002E0E9
:10125000286A40F001002862E06841F2883B98B1BA
:10126000FFF730FB82460BE0286A40F0040028625A
:10127000EEE700BFFFF726FBA0EB0A0159455AD85D
:10128000286A8007F6D50CE0FFF71CFB824605E0D4
:10129000FFF718FBA0EB0A0159454CD8286A8007D4
:1012A000F6D41FB1E86920F08050E861E06988B3A6
:1012B0006968C1F38101022944D00228C6F8608020
:1012C00004D0FFF7FFFA044638E034E0FFF7FAFAFB
:1012D000074604E0FFF7F6FAC01B02282BD828685F
:1012E0008001F7D4206AB0F5803F05D16868A16815
:1012F00020F4003008436860D4E9080108436968B5
:1013000021F4741108436860C6F86090FFF7DAFAB8
:10131000044606E025E000BFFFF7D4FA001B0228D0
:1013200009D828688001F7D51BE000BFFFF7CAFA8B
:10133000001B022802D90320BDE8F88F286880012D
:10134000F4D40EE00128F7D06868226A00F48031F6
:10135000914204D1616A00F47010884201D00120EA
:10136000EAE70020E8E700000010024000004242E7
:1013700080044242100000200070004070B504005C
:1013800009D0606A002540B125616561A56294F8C5
:10139000510040B10CE0012070BD6068B0F5827F63
:1013A000F4D0E561F2E784F85050204600F040F8B0
:1013B000022084F851002068016821F0400101609A
:1013C000A088218900F4827001F404410843A189B6
:1013D00001F400610843217C01F002010843217DF2
:1013E00001F001010843218B01F400710843217FC2
:1013F00001F03801084394F8201001F080010843FF
:10140000218D01F40051084321680860A06904217E
:1014100001EA1040216848602068C16921F4006138
:10142000C1616565012084F85100002070BD000095
:1014300030B585B000240094019402940394224DA9
:101440000368224802210322AB421FD1836943F47F
:1014500080538361836903F480530493836943F069
:101460000403836180691A4D00F004000490A020F9
:10147000CDE90001039269462846FFF727F940208D
:10148000CDE9000469462846029419E0114CA342B4
:1014900018D1C36943F48043C361C36903F4804333
:1014A0000493836943F0080383618069039200F029
:1014B000080004904FF42040CDE900016946064839
:1014C000FFF704F905B030BD0030014000100240C4
:1014D0000008014000380040000C01407047704790
:1014E00010B590F83C20012A22D0012280F83C203F
:1014F000CA688C6822F4407222434C6822F48062ED
:1015000022430C6822F4006222430C6922F48052C8
:1015100022434C6922F400522243C969002322F479
:1015200080420A4301684A6480F83C30002010BDC4
:10153000022010BD70B590F83C20012A2CD0012467
:1015400080F83C40022280F83D2003685A689D687C
:1015500022F070060A6832435A60104B02689A42C1
:101560000ED00F4B9A420BD0B2F1804F08D00D4BEA
:101570009A4205D00C4B9A4202D00C4B9A4204D1AD
:10158000496825F080031943916080F83D400021AF
:1015900080F83C10084670BD022070BD002C014050
:1015A000003401400004004000080040000C0040EE
:1015B00010B5040003D094F83D0010B107E00120FD
:1015C00010BD002084F83C00204600F01FF80220E7
:1015D00084F83D00211D206800F0DCFF012084F824
:1015E000460084F83E0084F83F0084F8400084F808
:1015F000410084F8420084F8430084F8440084F8F1
:10160000450084F83D00002010BD000008B50C4ADC
:1016100001680C48914207D1816941F40061816100
:10162000806900F4006009E0074A914207D1C1696E
:1016300041F00801C161C06900F00800009008BDD8
:10164000002C014000100240000C004090F83D10BA
:10165000012901D001207047022180F83D10016866
:10166000CA6842F00102CA6000680E4988420ED082
:101670000D4988420BD0B0F1804F08D00B49884209
:1016800005D00B49884202D00A49884204D18168BA
:1016900001F00701062903D0016841F00101016052
:1016A00000207047002C014000340140000400403D
:1016B00000080040000C004070B5044690F83C0063
:1016C000012817D0012584F83C50022084F83D0001
:1016D0002068826822F0770222F47F4282600868E4
:1016E000502830D00DDC20284DD005DC98B31028D0
:1016F0003BD148E0022070BD302844D0402834D18E
:1017000039E0602828D0702806D0B0F5805F2CD052
:10171000B0F5005F29D10AE0CB68D1E9012120684A
:1017200000F07EFF2068816841F0770109E0CB6816
:10173000D1E90121206800F073FF2068816841F43D
:101740008041816011E0CA684968206801F03CF876
:101750005021206807E016E0CA684968206801F057
:1017600044F86021206800F065FF84F83D500020B7
:1017700084F83C0070BDCA684968206801F024F80C
:1017800040212068EFE7226801461046EBE72DE98B
:10179000F0410D46040003D094F83D0018B108E074
:1017A0000120BDE8F081002084F83C00204600F0D4
:1017B00041F8022084F83D002068816844F2070265
:1017C00091438160211D206800F0E4FE226890684A
:1017D0009169166A2B68AF69034340F20330814375
:1017E00041EA0721A868EF6908434FF6FC418843A6
:1017F000E96840EA0720014328692F6A000140EAAE
:101800000730084369686D6926F0220646EA051527
:10181000294393602268906154F8460B01620120CD
:1018200004F81F09E0752076E0762077A075002087
:10183000B7E7000070B586B00025009501950295C8
:10184000039500684449454E454CB0F1804F22D085
:10185000444A90424ED1C86940F00200C861C8694C
:1018600000F002000490886940F0080088618869EF
:10187000694600F008000490302000903046FEF7E2
:1018800025FF606820F4406040F0E06040F40060B4
:10189000606006B070BDC86940F00100C861C869E9
:1018A00000F001000490886940F0040088618869B4
:1018B00000F004000490886940F00800886188699D
:1018C000694600F0080004904FF40040009026485C
:1018D000FEF7FCFE0820CDE900056946304602957A
:1018E000FEF7F4FE606820F4407040F0E06040F4E1
:1018F0008070CDE71D4BC022984213D1C86940F0DB
:101900000400C861C86900F004000490886940F0D0
:10191000080088618869694600F008000490009218
:10192000304615E0124B9842B3D1886940F400501C
:101930008861886900F400500490886940F01000C4
:1019400088618869694600F0100004900092094897
:10195000FEF7BCFE9DE7000000100240000C0140B5
:101960000000014000040040000801400008004061
:101970000034014000100140074A0849904203D159
:101980000068406A08807047054A9042FBD10068B1
:10199000406A488070470000D8040020740000208E
:1019A0002005002070B50446006801694FF000056D
:1019B000C943890715D4C168C943890711D4E91EF1
:1019C000016101202077206880698007204602D0CD
:1019D000FFF7D2FF04E000F0F3F8204600F0B0F982
:1019E000257720680169C943490717D4C168C943ED
:1019F000490713D46FF004010161022020772068A9
:101A0000806910F4407F204602D0FFF7B5FF04E064
:101A100000F0D6F8204600F093F925772068016998
:101A2000C943090716D4C168C943090712D46FF026
:101A300008010161042020772068C06980072046E2
:101A400002D0FFF799FF04E000F0BAF8204600F05A
:101A500077F9257720680169C943C90617D4C16899
:101A6000C943C90613D46FF0100101610820207723
:101A70002068C06910F4407F204602D0FFF77CFF49
:101A800004E000F09DF8204600F05AF92577206820
:101A90000169C943C90708D1C168C943C90704D14D
:101AA000891E0161204600F04DF920680169C94393
:101AB000090609D4C168C943090605D46FF080013D
:101AC00001612046FFF70AFD20680169C943490604
:101AD00009D4C168C943490605D46FF040010161CA
:101AE000204600F039F920680169C94389060BD402
:101AF000C168C943890607D46FF0200101612046FF
:101B0000BDE87040FFF7EBBC70BD000010B586B0BB
:101B100000210091019102910391124C0368124936
:101B200002221248A34209D18B6943F004038B615E
:101B3000896901F00401049181150BE00C4CA3426A
:101B40000ED18B6943F004038B61896901F00401B4
:101B500004910F21CDE9001269460392FEF7B6FD0C
:101B600006B010BD002C01400010024000080140EA
:101B7000000C004010B5044690F83C0001280AD043
:101B8000012084F83C0042B1042A0AD0082A0CD073
:101B90000C2A11D10DE0022010BD206800F052FD8A
:101BA0000AE0206800F07EFD06E0206800F0B0FD4D
:101BB00002E0206800F0E0FD002084F83C0010BD49
:101BC000704710B5040003D094F83D0010B107E051
:101BD000012010BD002084F83C00204600F01EF8D3
:101BE000022084F83D00211D206800F0D3FC012074
:101BF00084F8460084F83E0084F83F0084F84000F2
:101C000084F8410084F8420084F8430084F84400DA
:101C100084F8450084F83D00002010BD704770B581
:101C2000044690F83C000D4601280AD0012084F8B3
:101C30003C0042B1042A18D0082A2AD00C2A4DD1DF
:101C400039E0022070BD206800F0FCFC206881694A
:101C500041F0080181612068816921F004018161FE
:101C6000206881692A69114311E0206800F01AFD9B
:101C70002068816941F4006181612068816921F4F3
:101C800080618161206881692A6941EA022181615C
:101C900024E0206800F03CFD2068C16941F00801A3
:101CA000C1612068C16921F00401C1612068C16976
:101CB0002A69114311E0206800F05EFD2068C169C7
:101CC00041F40061C1612068C16921F48061C16192
:101CD0002068C1692A6941EA0221C161002084F8B3
:101CE0003C0070BD10B5040003D094F83D0010B165
:101CF00007E0012010BD002084F83C00204600F0E1
:101D00001EF8022084F83D00211D206800F042FCEE
:101D1000012084F8460084F83E0084F83F0084F8EF
:101D2000400084F8410084F8420084F8430084F8BD
:101D3000440084F8450084F83D00002010BD704741
:101D40007047000000680349884201D1FEF7B4BE25
:101D50007047000000140040704770B5040004D0C4
:101D600094F83D00002510B106E0012070BD84F814
:101D70003C50204600F022F8242084F83D002068E2
:101D8000C16821F40051C160204600F041FD206887
:101D9000016921F4904101612068416921F02A0123
:101DA00041612068C16841F40051C1602564202070
:101DB00084F83D0084F83E00002070BDF0B585B089
:101DC00000240094019402940394404D0668404915
:101DD000022203233F48AE4225D1CD6945F4801548
:101DE000CD61CD6905F4801504958D6945F0100528
:101DF0008D618D6905F0100504958D6945F020050C
:101E00008D618969039301F0200104918114CDE96A
:101E100000126946FEF75AFC0420CDE90004694629
:101E20002D48029421E02D4F3D15BE4221D18869F5
:101E300040F480408861886900F48040049088699B
:101E400040F0040088618869254E00F00400049089
:101E50006810CDE90002694603933046FEF736FC70
:101E6000CDE90054694630460294FEF72FFC05B0D8
:101E7000F0BD1C4FBE42FAD1CE6946F48026CE6139
:101E8000CE6906F4802604968E6946F010068E61AF
:101E9000896901F01001CDE90331CDE900526946AD
:101EA0000546FEF713FCF814CDE900046946284600
:101EB0000294FEF70BFC0C48416821F0300141F020
:101EC000E06141F010014160D1E7000000500040A6
:101ED0000010024000100140001401400038014091
:101EE000000801400048004000000140FEE70000FB
:101EF0003EB5002411480094019402940E49846078
:101F0000016004730475012505614FF4602144608C
:101F1000C161FEF71FFB08B1FEF79BFA0A20CDE96D
:101F20000005694602940548FEF796FA002801D09C
:101F3000FEF78FFA3EBD0000003C01405C0300202C
:101F400000B587B01C2206496846FEF7ADF90021AE
:101F5000684600F0B9FD0349086007B000BD000005
:101F60004C3500080000002010B586B0002002901B
:101F700003901D48816941F010018161816901F080
:101F800010010491816941F020018161816901F0B2
:101F900020010491816941F004018161816901F0AE
:101FA00004010491816941F0080181618069032481
:101FB00000F0080004904EF23C30CDE90004694680
:101FC0000A48FEF783FB1020CDE900046946084863
:101FD000FEF77CFB45F20730CDE900046946054871
:101FE000FEF774FB06B010BD001002400010014067
:101FF00000080140000C01400D4810B50B4901607C
:102000000C49416000214FF480428160C0E9031215
:1020100041618161C1610162FEF75AFC002803D071
:10202000BDE81040FEF715BA10BD00000058004092
:102030008C030020A0860100104810B50E490160F5
:102040004FF48271416000218160C1604FF40072E1
:102050000161C0E905122822C0E9072141628162BD
:102060000A21C162FFF78AF9002803D0BDE81040B9
:10207000FEF7EFB910BD000000300140E003002082
:102080000F4810B50D4901604FF482714160002185
:102090008160C1604FF400720161C0E90512C16145
:1020A0000162416281620A21C162FFF767F900287B
:1020B00003D0BDE81040FEF7CCB910BD0038004099
:1020C0003804002010B596B000240F941094119499
:1020D000129413941C2108A81494FEF717F92021D8
:1020E0006846FEF713F927482549C0E900144FF662
:1020F000FF71C0E90241046144618461FFF758FA4D
:1021000008B1FEF7A6F94FF480500F900FA91D48B3
:10211000FFF7D2FA08B1FEF79CF91A48FFF751FD14
:1021200008B1FEF796F9139413A916481494FFF713
:1021300001FA08B1FEF78DF9089409940A940B94FA
:102140000C940D94002208A90E480E94FFF712FD7E
:1021500008B1FEF77EF900944FF40050CDE9044039
:10216000029401940394694606480794FFF7B8F96E
:1021700008B1FEF76EF90348FFF7C8FC16B010BDB2
:10218000002C01409004002010B58CB0242168463A
:10219000FEF7BCF80024154809944FF080410A94DA
:1021A00001604721C0E9011441F28731C0E90314FD
:1021B00084610120CDE90004CDE902040494CDE955
:1021C00005400794694609480894FFF7E0FA08B10A
:1021D000FEF73FF9099409A904480A94FFF7AAF900
:1021E000002801D0FEF735F90CB010BDD80400204E
:1021F00010B58CB024216846FEF788F800241548F5
:10220000099413490A94C0E9001441F28731C0E9E6
:102210000241046184610120CDE90004CDE902049A
:102220000494CDE90540079469460A480894FFF7ED
:10223000AEFA08B1FEF70DF9099409A905480A9408
:10224000FFF778F9002801D0FEF703F90CB010BDB4
:10225000000400402005002010B58CB02421684601
:10226000FEF754F800241548099413490A94C0E96C
:10227000001441F28731C0E9024104618461012008
:10228000CDE90004CDE902040494CDE905400794AA
:1022900069460A480894FFF77AFA08B1FEF7D9F8B8
:1022A000099409A905480A94FFF744F9002801D0C8
:1022B000FEF7CFF80CB010BD000800406805002004
:1022C00010B58EB000240794089409940A940B94D6
:1022D0001C2168460C94FEF719F82A482849C0E9E1
:1022E00000144FF6FF71C0E9024104618461FFF7F9
:1022F0005FF908B1FEF7ADF84FF48050079007A9D9
:102300002048FFF7D9F908B1FEF7A3F81D48FFF7F9
:10231000E9FC08B1FEF79DF80B940BA919480C9441
:10232000FFF708F908B1FEF794F86020CDE9000442
:1023300002940022694613480494FFF770FC08B128
:10234000FEF787F8042269460E48FFF768FC08B1DB
:10235000FEF77FF8082269460A48FFF760FC08B1DB
:10236000FEF777F80C2269460648FFF758FC08B1DB
:10237000FEF76FF80348FFF7C9FB0EB010BD000071
:10238000000C0040B005002010B58CB02421684638
:10239000FDF7BCFF00241648099414490A94C0E9CB
:1023A000001441F28731C0E9024104614461846153
:1023B0000120CDE90004CDE902040494CDE90540F3
:1023C000079469460A480894FFF7E1F908B1FEF757
:1023D00040F8099409A906480A94FFF7ABF80028C9
:1023E00001D0FEF736F80CB010BD000000340140FB
:1023F000F80500200C4810B50A4901604FF4E1319E
:102400004160002181600C22C160C0E90412816139
:10241000C161FFF7A2FC002803D0BDE81040FEF721
:1024200018B810BD00500040400600200C4810B500
:102430000A4901604FF4E1314160002181600C22C2
:10244000C160C0E904128161C161FFF786FC002808
:1024500003D0BDE81040FDF7FCBF10BD00380140BF
:10246000840600200C4810B50A4901604FF4E131A0
:102470004160002181600C22C160C0E904128161C9
:10248000C161FFF76AFC002803D0BDE81040FDF7EA
:10249000E0BF10BD00480040C80600200B4810B542
:1024A00009490160082141600221816000218161A8
:1024B000C1610162FEF7CAFB002803D0BDE81040ED
:1024C000FDF7C7BF10BD0000005C00400C070020F6
:1024D000FEE7FEE7012000F0EBFAFBE710B5502025
:1024E00080F31188BFF34F8FBFF36F8F00F068FF49
:1024F00018B104494FF080500860002080F3118823
:1025000010BD000004ED00E010B596B0282168462B
:10251000FDF7FCFE14210AA8FDF7F8FE18210FA80C
:10252000FDF7F4FE0120010442048DE80700049049
:102530004FF4E010CDE90810022407946846FEF736
:102540008DFD08B172B6FEE70F20CDE90A04002424
:102550004FF48060CDE90C4002210AA80E94FEF7EA
:102560006DFC08B172B6FEE712200F904FF40040E8
:10257000119014940FA8FEF7EBFB002801D072B65F
:10258000FEE716B010BD70470148FFF70BBA000018
:10259000F8090020F0B502681C4B1D4D1D4E1E4F62
:1025A0001E4C4FF0804C984209D0A04207D06045A5
:1025B00005D0A84203D0B04201D0B84204D122F0E5
:1025C000700E4A6842EA0E02984209D0A04207D033
:1025D000604505D0A84203D0B04201D0B84203D133
:1025E00022F44075CA682A434D6922F080022A43CA
:1025F00002608A68C2620A688262984201D0A04280
:1026000001D10969016301214161F0BD002C014044
:102610000004004000080040000C0040003401406D
:1026200010B5846842EA032224F47F440A4322431B
:10263000826010BD826822F070020A4342F00701F6
:1026400081607047F0B5026A22F001020262036AFB
:1026500042688469124E24F073050C682C4323F001
:1026600002058B682B430D4DA84201D0B04205D125
:1026700023F00807CB683B4323F00403A84201D0B2
:10268000B04205D14D6922F4407215438A692A434C
:1026900042608461496841630362F0BD002C0140DF
:1026A00000340140F0B5026A22F010020262026AB0
:1026B000436884690D6824F4E64444EA05248D687F
:1026C00022F0200242EA05120F4D104EA84201D01E
:1026D000B04206D1CF6822F0800242EA071222F00F
:1026E0004002A84201D0B04207D14D6923F44063B3
:1026F00043EA85038D6943EA850343608461496841
:1027000081630262F0BD0000002C014000340140F2
:10271000F0B5026A22F480720262026A4368C469F8
:1027200022F4007224F073050C68124E2C438D685D
:1027300042EA05220E4DA84201D0B04206D1CF6830
:1027400022F4006242EA072222F48062A84201D009
:10275000B04207D14D6923F4405343EA05138D6914
:1027600043EA05134360C4614968C1630262F0BD76
:10277000002C01400034014030B5026A22F480523E
:102780000262046A4268C3690D6823F4E64343EABF
:1027900005238D6824F4005444EA0534084DA8420A
:1027A00002D0084DA84204D14D6922F4804242EA89
:1027B00085124260C36149680164046230BD000053
:1027C000002C01400034014010B5036A046A24F073
:1027D00001040462846924F0F00444EA021423F042
:1027E0000A020A438461026210BD10B5036A23F035
:1027F000100303628369046A23F4704343EA0232DC
:1028000024F0A00343EA01118261016210BD0000BF
:1028100070B5044600680169E26821F44051114333
:1028200001612169A0680843616908432168CA6899
:1028300041F20C639A430243CA6020684169A2696D
:1028400021F44071114341611E492068884202D140
:10285000FEF7BAFB01E0FEF7A7FB00EBC00101EBBE
:102860000012606864218000B2FBF0F3B3FBF1F367
:102870006FF018067343B2FBF0F5B2FBF0F605EB10
:102880008305322303EB0515B5FBF1F5B6FBF1F635
:1028900005F0F00505EB0615B2FBF0F6B2FBF0F023
:1028A000B0FBF1F06FF01802504306EB800003EB31
:1028B0000010B0FBF1F0216800F00F0028448860A0
:1028C00070BD0000003801400020704700207047B4
:1028D000012120F8401F00210180818001820846EB
:1028E000704730F8401F21F43F41018000207047BD
:1028F00000207047FEE70907090E002804DB00F1FD
:10290000E02080F80014704700F00F0000F1E02094
:1029100080F8141D7047000010B5094800F01EFB38
:102920000020074A01460C3202EB0013401C1970CC
:102930000828F9D3BDE81040014800F02ABB000088
:102940007C00002010B504000AD00B4800F006FB04
:1029500020680178012907D072B6FDF77AFDFEE7FD
:1029600072B6FDF776FDFEE7001D00F0F7FABDE850
:102970001040014800F00DBB7C00002010B50400A1
:102980000AD00B4800F0EAFA20680178012907D044
:1029900072B6FDF75EFDFEE772B6FDF75AFDFEE783
:1029A00000210170BDE81040014800F0F2BA0000BB
:1029B0007C00002010B5040010D0164800F0CEFABC
:1029C0001448002110F10C0000EB011212783AB10A
:1029D000491C0829F8D30F4800F0DBFA002010BD8D
:1029E00000EB01100121206001702168091D0CD04D
:1029F0000020024641F82020401C0228FAD30A7227
:102A0000044800F0C6FA012010BD72B6FDF721FDA2
:102A1000FEE700007C00002010B504000AD00B483F
:102A200000F09CFA20680178012907D072B6FDF702
:102A300010FDFEE772B6FDF70CFDFEE7001D00F08D
:102A4000A8FABDE81040014800F0A3BA7C000020BD
:102A50007047FEF739F8FFF757FDFFF785FAFFF7E4
:102A600047FAFFF7C9FAFFF7E7FAFFF709FBFFF7A5
:102A700029FBFFF789FBFFF7BBFBFFF7EDFBFFF738
:102A80001FFCFFF781FCFFF7B5FCFFF7CFFCFFF75A
:102A9000E9FCFFF703FDFFF753FA00F010F8FFF72A
:102AA000D7FFFEE701460020842900D0C81C7047EC
:102AB00010B500B9012000F045FB002010BD10B595
:102AC00000F066FB002010BD7FB50D46044641694D
:102AD000B0F9080081B1A16971B1FFF7E3FFD4E952
:102AE00005128DE80700D4E900102B46226900F09A
:102AF0003CFC039004B070BDFFF7D4FF03A9CDE9FF
:102B00000001208A2B4682B2D4E9001000F000FCBC
:102B1000012801D00020EDE70398EBE72DE9F04113
:102B2000184C0F46054666692068001D00F046FAFD
:102B300038B9206890F82C1001208840A1698143A1
:102B4000A161681C07D137B12168BDE8F0410E488A
:102B5000091D00F077BA20683544B5424560216808
:102B600005D2A068BDE8F041091D00F053BA6068C5
:102B7000091D00F04FFA206B854200D22563BDE8A5
:102B8000F081000014000020D00B00202DE9F0415E
:102B9000054600F063FA2D4C2069401C2061206836
:102BA0002B4F10B1E06930B32BE02560206901287C
:102BB00027D1002606EB860007EB800000F01CFA08
:102BC000761C102EF6D3234800F016FA2148143054
:102BD00000F012FA1F48283000F00EFA1D483C3071
:102BE00000F00AFA1B48503000F006FA19486060FD
:102BF0001430A06005E02068E96AC06A884200D805
:102C00002560E06A401CE062E96A0120A269884010
:102C10001043A06101EB810007EB8000291D00F04B
:102C200011FA00F03BFAE06900280CD02068E96A4C
:102C3000C06A884207D208494FF080500860BFF34D
:102C40004F8FBFF36F8FBDE8F081000014000020AC
:102C5000400A0020800B002004ED00E010B504467F
:102C600090F8510058B101280CD002280FD0502004
:102C700080F31188BFF34F8FBFF36F8FFEE7206B98
:102C800000F020FA2046BDE8104000F01BBA10BD4D
:102C900010484FF42051420706D0C01D0D4920F0C6
:102CA0000700411AC1F520510B4A00230144C2E933
:102CB00000030839103A21F0070111604B600B60E6
:102CC0000B1AC0E9001393604FF000405360D060CE
:102CD00070470000E40B002060000020144E154CEB
:102CE000A6F5BE774FF08058DFF84C9012E000BF99
:102CF00000F0B4F9F068C568281D00F05FF920699C
:102D0000401E2061E068401EE06000F0C7F92846E0
:102D1000FFF7A4FFE0680028EAD138680128F9D954
:102D2000C9F80080BFF34F8FBFF36F8FF2E7000049
:102D3000BC0B00201400002004ED00E02DE9F0475A
:102D40009A46DDE9098481466FF00303206B03EBAB
:102D500082021044089D20F00706700707D050201B
:102D600080F31188BFF34F8FBFF36F8FFEE72318F7
:102D70000A5C83F834200A5C12B1401C1028F6D398
:102D8000002784F84370102D00D30F25E562C4E9B5
:102D90001157201D00F03BF904F1180000F037F93D
:102DA0002461C5F110006462A061E76484F850708A
:102DB00052464946304600F0BFF82060B8F1000F97
:102DC00001D0C8F80040BDE8F087000030B51149D7
:102DD00000E011460A688242FBD34B685C188442CB
:102DE00003D1406818444860084643681C18944260
:102DF00009D1084C103C2468A24209D052681A44F8
:102E000042600A6812680260814200D0086030BDEA
:102E10000460F9E76000002006484168096829B1AC
:102E20004168C968C9684968016370474FF0FF315C
:102E3000FAE700001400002008484068401C4FF0EA
:102E4000500080F3118804D0BFF34F8FBFF36F8F12
:102E5000FEE7BFF34F8FBFF36F8FFEE768000020E0
:102E60002DE9F0410546002700F0C8F9314E3068E1
:102E700008B9FFF70DFFF06805424BD1C5B308351F
:102E800068070ED005F00700C0F108000544680788
:102E900007D0502080F31188BFF34F8FBFF36F8F9F
:102EA000FEE72DB37068854234D8224810300146C1
:102EB0000C6801E020460C466168A94202D22168F4
:102EC0000029F7D131688C4224D00768216801605D
:102ED00060680837411B10290FD96019420708D0D4
:102EE000502080F31188BFF34F8FBFF36F8FFEE741
:102EF00010E041606560FFF769FF61687068401A23
:102F00007060B268904200D2B060F0680143002067
:102F1000C4E9000100F0B8FA780707D0502080F328
:102F20001188BFF34F8FBFF36F8FFEE73846BDE8C0
:102F3000F08100005000002010B5031F4FF0807496
:102F40001C601B1F21F001011960191F024B0B604F
:102F5000143940380A6010BD392E000810B530B160
:102F6000017A022907D372B6FDF773FAFEE772B64B
:102F7000FDF76FFAFEE75022EFF3118382F3118819
:102F8000BFF34F8FBFF36F8F8A00491C01728350CC
:102F900010BD10B548B1017A491EC9B201720229AB
:102FA00007D372B6FDF755FAFEE772B6FDF751FA90
:102FB000FEE750F8210080F3118810BDD0E90132FE
:102FC00001699A60D0E901235A604A68824201D1BE
:102FD00082684A60002202610868401E0860086832
:102FE00070470000034B036003F154000860802029
:102FF000106070470801002000F108014FF0FF3217
:10300000C0E90112C1600161002101607047002127
:103010000161704730B50B685A1C02D000F10802FC
:1030200002E0026904E02246546825689D42FAD90C
:1030300053684B6099608A60516008610168491C5F
:10304000016030BD42684A6093688B609368596044
:10305000916008610168491C01607047502080F34D
:103060001188BFF34F8FBFF36F8F0A494868401C28
:10307000486001280CD10848006810F0FF0F07D005
:10308000502080F31188BFF34F8FBFF36F8FFEE79F
:10309000704700006800002004ED00E0084948681F
:1030A00028B1401E486001D180F31188704750203C
:1030B00080F31188BFF34F8FBFF36F8FFEE70000DF
:1030C0006800002070B5002827D0144DA0F1080436
:1030D0006168E868014207D1502080F31188BFF38E
:1030E0004F8FBFF36F8FFEE722683AB1502080F315
:1030F0001188BFF34F8FBFF36F8FFEE7814361608D
:1031000000F07CF860686968084468602046FFF752
:103110005DFEBDE8704000F0B7B970BD5000002002
:103120004FF0E02000210161816105494FF47A727E
:103130000968B1FBF2F1491E416107210161704745
:103140001000002010B5020014D00F48806B38B179
:10315000502080F31188BFF34F8FBFF36F8FFEE7CE
:1031600000F04CF800211046FFF7D8FC00F08CF975
:10317000002807D105494FF080500860BFF34F8FFA
:10318000BFF36F8F10BD00001400002004ED00E0BD
:1031900010B586B00024039405AA04A903A80494DA
:1031A000FFF720FFDDE903010094CDE901100023C2
:1031B0000EA11048059A00F0D8F80F49002848637E
:1031C00011D0502080F31188BFF34F8FBFF36F8F62
:1031D0004FF0FF3008630120C8614C6106B0BDE8C4
:1031E000104000F041B806B010BD000049444C4505
:1031F00000000000DD2C0008140000200248816B54
:10320000491C816370470000140000201448816B42
:1032100011B1012141627047002141628169B1FA17
:1032200081F1C1F11F0101EB81020E4951F82230F9
:103230006BB101EB820101F108034A6852684A60F0
:103240009A4201D152684A60D168016070475020AB
:1032500080F31188BFF34F8FBFF36F8FFEE700003D
:1032600014000020400A00201CB52649087801906F
:10327000FF20087008788DF800009DF800009DF888
:10328000002000F0F000904207D0502080F3118819
:10329000BFF34F8FBFF36F8FFEE79DF800001A4B0F
:1032A00000F0500018700720986005E09DF800209D
:1032B00052008DF80020401E9DF800201206F5D423
:1032C0009860032807D0502080F31188BFF34F8FF8
:1032D000BFF36F8FFEE74FF440709860019808705D
:1032E0000A48016841F470010160016841F07041D1
:1032F0000160FFF715FF00205860FCF77BFF0020FE
:103300001CBD000000E400E06800002020ED00E0AB
:103310002DE9FF5F8346DDE90E87994616468A460A
:103320009000FFF79DFD05001CD05420FFF798FD8D
:10333000040014D00020256384F85100CDE9024038
:10334000CDE900874B46324651465846FFF7F6FC1A
:103350002046FFF71BFC012004B0BDE8F09F284683
:10336000FFF7B0FE4FF0FF30F6E7F0B585B0DDE9CE
:103370000B640A9DA6B1DCB1542700972663022690
:1033800084F85160002604AFCDE90246CDE900572C
:10339000FFF7D4FC2046FFF7F9FB049805B0F0BD19
:1033A000502080F31188BFF34F8FBFF36F8FFEE77C
:1033B000502080F31188BFF34F8FBFF36F8FFEE76C
:1033C0002DE9F0412E4C0027A06B40B1206A401C33
:1033D0002062606A00B101273846BDE8F081666965
:1033E000761C666113D16068006838B1502080F3A4
:1033F0001188BFF34F8FBFF36F8FFEE76068A1683E
:103400006160A060A06A401CA062FFF705FD206B10
:10341000DFF87080864209D36068006880B1606818
:10342000C068C568686886420DD220632068C06A9B
:1034300000EB800158F821000128CAD90127C8E70C
:103440004FF0FF30F1E7281DFFF7B8FDA86A18B16B
:1034500005F11800FFF7B2FDE86A0121A269814079
:103460001143A16100EB800108EB8100291DFFF7EA
:10347000E9FDE86A2168C96A8842CDD30127CBE714
:1034800014000020400A00202DE9F0472C4D0024B4
:103490002746A86B38B1FFF7E1FDA86B401EA86373
:1034A000A86B40B146E0502080F31188BFF34F8FE6
:1034B000BFF36F8FFEE72969224E0120D1B3A6F535
:1034C000B47980463068E8B1F068C46804F1180047
:1034D000FFF774FD201DFFF771FDE06AAA6908FA85
:1034E00000F11143A96100EB800109EB8100211D6E
:1034F000FFF7A8FDE06A2968C96A8842E2D3C5F8E7
:103500002480DFE70CB1FFF787FC2C6A44B1464604
:10351000FFF756FF00B16E62641EF9D100202862E9
:10352000686A38B10849012738070860BFF34F8F30
:10353000BFF36F8FFFF7B2FD3846BDE8F08700009C
:1035400014000020A80B002004ED00E080350008E6
:10355000D5240008000000000000000080000000EA
:10356000000000000000000000000000000000005B
:103570000102030406070809000000000102030419
:1035800064656661756C745461736B00B0350008D6
:10359000000000207C0000006C0100082C360008B0
:1035A0007C000020CC3D0000880100086DF3FFFF87
:1035B00000000000010000001000000000000000FA
:1035C0000024F400000000000000000000000000E3
:1035D00000000000000000000000000000000000EB
:1035E00000000000000000000000000000000000DB
:1035F00000000000000000000000000000000000CB
:1036000000000000000000000000000000000000BA
:10361000000000000000000000000000AAAAAAAA02
:0C3620000000000000000000000000009E
:0400000508000131BD
:00000001FF
